{
	"contracts/Verifier.sol": {
		"Verifier": {
			"abi": [
				{
					"inputs": [
						{
							"internalType": "address",
							"name": "_axiomV2QueryAddress",
							"type": "address"
						},
						{
							"internalType": "uint64",
							"name": "_callbackSourceChainId",
							"type": "uint64"
						},
						{
							"internalType": "bytes32",
							"name": "_querySchema",
							"type": "bytes32"
						},
						{
							"internalType": "address",
							"name": "_token",
							"type": "address"
						},
						{
							"internalType": "uint256",
							"name": "_reward",
							"type": "uint256"
						}
					],
					"stateMutability": "nonpayable",
					"type": "constructor"
				},
				{
					"inputs": [],
					"name": "AxiomV2QueryAddressIsZero",
					"type": "error"
				},
				{
					"inputs": [],
					"name": "CallerMustBeAxiomV2Query",
					"type": "error"
				},
				{
					"anonymous": false,
					"inputs": [
						{
							"indexed": true,
							"internalType": "uint64",
							"name": "sourceChainId",
							"type": "uint64"
						},
						{
							"indexed": false,
							"internalType": "address",
							"name": "caller",
							"type": "address"
						},
						{
							"indexed": true,
							"internalType": "bytes32",
							"name": "querySchema",
							"type": "bytes32"
						},
						{
							"indexed": true,
							"internalType": "uint256",
							"name": "queryId",
							"type": "uint256"
						}
					],
					"name": "AxiomV2Call",
					"type": "event"
				},
				{
					"anonymous": false,
					"inputs": [
						{
							"indexed": true,
							"internalType": "uint64",
							"name": "sourceChainId",
							"type": "uint64"
						},
						{
							"indexed": false,
							"internalType": "address",
							"name": "caller",
							"type": "address"
						},
						{
							"indexed": true,
							"internalType": "bytes32",
							"name": "querySchema",
							"type": "bytes32"
						},
						{
							"indexed": true,
							"internalType": "uint256",
							"name": "queryId",
							"type": "uint256"
						}
					],
					"name": "AxiomV2OffchainCall",
					"type": "event"
				},
				{
					"anonymous": false,
					"inputs": [
						{
							"indexed": false,
							"internalType": "uint256",
							"name": "blockNumber",
							"type": "uint256"
						},
						{
							"indexed": false,
							"internalType": "address",
							"name": "sender",
							"type": "address"
						},
						{
							"indexed": false,
							"internalType": "address",
							"name": "receiver",
							"type": "address"
						},
						{
							"indexed": false,
							"internalType": "address",
							"name": "token",
							"type": "address"
						},
						{
							"indexed": false,
							"internalType": "uint256",
							"name": "amount",
							"type": "uint256"
						}
					],
					"name": "TransferedAmountEvent",
					"type": "event"
				},
				{
					"inputs": [
						{
							"internalType": "uint64",
							"name": "sourceChainId",
							"type": "uint64"
						},
						{
							"internalType": "address",
							"name": "caller",
							"type": "address"
						},
						{
							"internalType": "bytes32",
							"name": "querySchema",
							"type": "bytes32"
						},
						{
							"internalType": "uint256",
							"name": "queryId",
							"type": "uint256"
						},
						{
							"internalType": "bytes32[]",
							"name": "axiomResults",
							"type": "bytes32[]"
						},
						{
							"internalType": "bytes",
							"name": "extraData",
							"type": "bytes"
						}
					],
					"name": "axiomV2Callback",
					"outputs": [],
					"stateMutability": "nonpayable",
					"type": "function"
				},
				{
					"inputs": [
						{
							"internalType": "uint64",
							"name": "sourceChainId",
							"type": "uint64"
						},
						{
							"internalType": "address",
							"name": "caller",
							"type": "address"
						},
						{
							"internalType": "bytes32",
							"name": "querySchema",
							"type": "bytes32"
						},
						{
							"internalType": "uint256",
							"name": "queryId",
							"type": "uint256"
						},
						{
							"internalType": "bytes32[]",
							"name": "axiomResults",
							"type": "bytes32[]"
						},
						{
							"internalType": "bytes",
							"name": "extraData",
							"type": "bytes"
						}
					],
					"name": "axiomV2OffchainCallback",
					"outputs": [],
					"stateMutability": "nonpayable",
					"type": "function"
				},
				{
					"inputs": [],
					"name": "axiomV2QueryAddress",
					"outputs": [
						{
							"internalType": "address",
							"name": "",
							"type": "address"
						}
					],
					"stateMutability": "view",
					"type": "function"
				}
			],
			"devdoc": {
				"errors": {
					"AxiomV2QueryAddressIsZero()": [
						{
							"details": "Error returned if initialized with `axiomV2QueryAddress` set to the zero address."
						}
					],
					"CallerMustBeAxiomV2Query()": [
						{
							"details": "Error returned if the caller is not the AxiomV2Query contract."
						}
					]
				},
				"events": {
					"AxiomV2Call(uint64,address,bytes32,uint256)": {
						"params": {
							"caller": "The address of the account that initiated the query.",
							"queryId": "The unique ID identifying the query.",
							"querySchema": "The schema of the query, defined as `keccak(k . resultLen . vkeyLen . vkey)`",
							"sourceChainId": "The ID of the chain the query reads from."
						}
					},
					"AxiomV2OffchainCall(uint64,address,bytes32,uint256)": {
						"params": {
							"caller": "The address of the account that initiated the query fulfillment.",
							"queryId": "The unique ID identifying the query.",
							"querySchema": "The schema of the query, defined as `keccak(k . resultLen . vkeyLen . vkey)`",
							"sourceChainId": "The ID of the chain the query reads from."
						}
					}
				},
				"kind": "dev",
				"methods": {
					"axiomV2Callback(uint64,address,bytes32,uint256,bytes32[],bytes)": {
						"params": {
							"axiomResults": "The results of the query.",
							"caller": "The address of the account that initiated the query.",
							"extraData": "Additional data passed to the callback.",
							"queryId": "The unique ID identifying the query.",
							"querySchema": "The schema of the query, defined as `keccak(k . resultLen . vkeyLen . vkey)`",
							"sourceChainId": "The ID of the chain the query reads from."
						}
					},
					"axiomV2OffchainCallback(uint64,address,bytes32,uint256,bytes32[],bytes)": {
						"params": {
							"axiomResults": "The results of the query.",
							"caller": "The address of the account that initiated the query fulfillment.",
							"extraData": "Additional data passed to the callback.",
							"queryId": "The unique ID identifying the query.",
							"querySchema": "The schema of the query, defined as `keccak(k . resultLen . vkeyLen . vkey)`",
							"sourceChainId": "The ID of the chain the query reads from."
						}
					}
				},
				"version": 1
			},
			"evm": {
				"assembly": "    /* \"contracts/Verifier.sol\":314:2095  contract Verifier is AxiomV2Client {... */\n  mstore(0x40, 0x0100)\n    /* \"contracts/Verifier.sol\":626:973  constructor(address _axiomV2QueryAddress, uint64 _callbackSourceChainId, bytes32 _querySchema, address _token, uint256 _reward)... */\n  callvalue\n  dup1\n  iszero\n  tag_1\n  jumpi\n  0x00\n  dup1\n  revert\ntag_1:\n  pop\n  mload(0x40)\n  sub(codesize, bytecodeSize)\n  dup1\n  bytecodeSize\n  dup4\n  codecopy\n  dup2\n  dup2\n  add\n  0x40\n  mstore\n  dup2\n  add\n  swap1\n  tag_2\n  swap2\n  swap1\n  tag_3\n  jump\t// in\ntag_2:\n    /* \"contracts/Verifier.sol\":777:797  _axiomV2QueryAddress */\n  dup5\n    /* \"https://github.com/axiom-crypto/axiom-v2-periphery/blob/main/src/client/AxiomV2Client.sol\":786:787  0 */\n  0x00\n    /* \"https://github.com/axiom-crypto/axiom-v2-periphery/blob/main/src/client/AxiomV2Client.sol\":754:788  _axiomV2QueryAddress == address(0) */\n  0xffffffffffffffffffffffffffffffffffffffff\n  and\n    /* \"https://github.com/axiom-crypto/axiom-v2-periphery/blob/main/src/client/AxiomV2Client.sol\":754:774  _axiomV2QueryAddress */\n  dup2\n    /* \"https://github.com/axiom-crypto/axiom-v2-periphery/blob/main/src/client/AxiomV2Client.sol\":754:788  _axiomV2QueryAddress == address(0) */\n  0xffffffffffffffffffffffffffffffffffffffff\n  and\n  sub\n    /* \"https://github.com/axiom-crypto/axiom-v2-periphery/blob/main/src/client/AxiomV2Client.sol\":750:849  if (_axiomV2QueryAddress == address(0)) {... */\n  tag_7\n  jumpi\n    /* \"https://github.com/axiom-crypto/axiom-v2-periphery/blob/main/src/client/AxiomV2Client.sol\":811:838  AxiomV2QueryAddressIsZero() */\n  mload(0x40)\n  0xd86f565500000000000000000000000000000000000000000000000000000000\n  dup2\n  mstore\n  0x04\n  add\n  mload(0x40)\n  dup1\n  swap2\n  sub\n  swap1\n  revert\n    /* \"https://github.com/axiom-crypto/axiom-v2-periphery/blob/main/src/client/AxiomV2Client.sol\":750:849  if (_axiomV2QueryAddress == address(0)) {... */\ntag_7:\n    /* \"https://github.com/axiom-crypto/axiom-v2-periphery/blob/main/src/client/AxiomV2Client.sol\":880:900  _axiomV2QueryAddress */\n  dup1\n    /* \"https://github.com/axiom-crypto/axiom-v2-periphery/blob/main/src/client/AxiomV2Client.sol\":858:900  axiomV2QueryAddress = _axiomV2QueryAddress */\n  0xffffffffffffffffffffffffffffffffffffffff\n  and\n  0x80\n  dup2\n  0xffffffffffffffffffffffffffffffffffffffff\n  and\n  dup2\n  mstore\n  pop\n  pop\n    /* \"https://github.com/axiom-crypto/axiom-v2-periphery/blob/main/src/client/AxiomV2Client.sol\":698:907  constructor(address _axiomV2QueryAddress) {... */\n  pop\n    /* \"contracts/Verifier.sol\":830:842  _querySchema */\n  dup3\n    /* \"contracts/Verifier.sol\":815:842  QUERY_SCHEMA = _querySchema */\n  0xa0\n  dup2\n  dup2\n  mstore\n  pop\n  pop\n    /* \"contracts/Verifier.sol\":871:893  _callbackSourceChainId */\n  dup4\n    /* \"contracts/Verifier.sol\":853:893  SOURCE_CHAIN_ID = _callbackSourceChainId */\n  0xffffffffffffffff\n  and\n  0xc0\n  dup2\n  0xffffffffffffffff\n  and\n  dup2\n  mstore\n  pop\n  pop\n    /* \"contracts/Verifier.sol\":924:930  _token */\n  dup2\n    /* \"contracts/Verifier.sol\":904:914  BASE_TOKEN */\n  0x00\n  dup1\n    /* \"contracts/Verifier.sol\":904:931  BASE_TOKEN = IERC20(_token) */\n  0x0100\n  exp\n  dup2\n  sload\n  dup2\n  0xffffffffffffffffffffffffffffffffffffffff\n  mul\n  not\n  and\n  swap1\n  dup4\n  0xffffffffffffffffffffffffffffffffffffffff\n  and\n  mul\n  or\n  swap1\n  sstore\n  pop\n    /* \"contracts/Verifier.sol\":958:965  _reward */\n  dup1\n    /* \"contracts/Verifier.sol\":942:965  REWARD_AMOUNT = _reward */\n  0xe0\n  dup2\n  dup2\n  mstore\n  pop\n  pop\n    /* \"contracts/Verifier.sol\":626:973  constructor(address _axiomV2QueryAddress, uint64 _callbackSourceChainId, bytes32 _querySchema, address _token, uint256 _reward)... */\n  pop\n  pop\n  pop\n  pop\n  pop\n    /* \"contracts/Verifier.sol\":314:2095  contract Verifier is AxiomV2Client {... */\n  jump(tag_9)\n    /* \"#utility.yul\":88:205   */\ntag_11:\n    /* \"#utility.yul\":197:198   */\n  0x00\n    /* \"#utility.yul\":194:195   */\n  dup1\n    /* \"#utility.yul\":187:199   */\n  revert\n    /* \"#utility.yul\":334:460   */\ntag_13:\n    /* \"#utility.yul\":371:378   */\n  0x00\n    /* \"#utility.yul\":411:453   */\n  0xffffffffffffffffffffffffffffffffffffffff\n    /* \"#utility.yul\":404:409   */\n  dup3\n    /* \"#utility.yul\":400:454   */\n  and\n    /* \"#utility.yul\":389:454   */\n  swap1\n  pop\n    /* \"#utility.yul\":334:460   */\n  swap2\n  swap1\n  pop\n  jump\t// out\n    /* \"#utility.yul\":466:562   */\ntag_14:\n    /* \"#utility.yul\":503:510   */\n  0x00\n    /* \"#utility.yul\":532:556   */\n  tag_32\n    /* \"#utility.yul\":550:555   */\n  dup3\n    /* \"#utility.yul\":532:556   */\n  tag_13\n  jump\t// in\ntag_32:\n    /* \"#utility.yul\":521:556   */\n  swap1\n  pop\n    /* \"#utility.yul\":466:562   */\n  swap2\n  swap1\n  pop\n  jump\t// out\n    /* \"#utility.yul\":568:690   */\ntag_15:\n    /* \"#utility.yul\":641:665   */\n  tag_34\n    /* \"#utility.yul\":659:664   */\n  dup2\n    /* \"#utility.yul\":641:665   */\n  tag_14\n  jump\t// in\ntag_34:\n    /* \"#utility.yul\":634:639   */\n  dup2\n    /* \"#utility.yul\":631:666   */\n  eq\n    /* \"#utility.yul\":621:684   */\n  tag_35\n  jumpi\n    /* \"#utility.yul\":680:681   */\n  0x00\n    /* \"#utility.yul\":677:678   */\n  dup1\n    /* \"#utility.yul\":670:682   */\n  revert\n    /* \"#utility.yul\":621:684   */\ntag_35:\n    /* \"#utility.yul\":568:690   */\n  pop\n  jump\t// out\n    /* \"#utility.yul\":696:839   */\ntag_16:\n    /* \"#utility.yul\":753:758   */\n  0x00\n    /* \"#utility.yul\":784:790   */\n  dup2\n    /* \"#utility.yul\":778:791   */\n  mload\n    /* \"#utility.yul\":769:791   */\n  swap1\n  pop\n    /* \"#utility.yul\":800:833   */\n  tag_37\n    /* \"#utility.yul\":827:832   */\n  dup2\n    /* \"#utility.yul\":800:833   */\n  tag_15\n  jump\t// in\ntag_37:\n    /* \"#utility.yul\":696:839   */\n  swap3\n  swap2\n  pop\n  pop\n  jump\t// out\n    /* \"#utility.yul\":845:946   */\ntag_17:\n    /* \"#utility.yul\":881:888   */\n  0x00\n    /* \"#utility.yul\":921:939   */\n  0xffffffffffffffff\n    /* \"#utility.yul\":914:919   */\n  dup3\n    /* \"#utility.yul\":910:940   */\n  and\n    /* \"#utility.yul\":899:940   */\n  swap1\n  pop\n    /* \"#utility.yul\":845:946   */\n  swap2\n  swap1\n  pop\n  jump\t// out\n    /* \"#utility.yul\":952:1072   */\ntag_18:\n    /* \"#utility.yul\":1024:1047   */\n  tag_40\n    /* \"#utility.yul\":1041:1046   */\n  dup2\n    /* \"#utility.yul\":1024:1047   */\n  tag_17\n  jump\t// in\ntag_40:\n    /* \"#utility.yul\":1017:1022   */\n  dup2\n    /* \"#utility.yul\":1014:1048   */\n  eq\n    /* \"#utility.yul\":1004:1066   */\n  tag_41\n  jumpi\n    /* \"#utility.yul\":1062:1063   */\n  0x00\n    /* \"#utility.yul\":1059:1060   */\n  dup1\n    /* \"#utility.yul\":1052:1064   */\n  revert\n    /* \"#utility.yul\":1004:1066   */\ntag_41:\n    /* \"#utility.yul\":952:1072   */\n  pop\n  jump\t// out\n    /* \"#utility.yul\":1078:1219   */\ntag_19:\n    /* \"#utility.yul\":1134:1139   */\n  0x00\n    /* \"#utility.yul\":1165:1171   */\n  dup2\n    /* \"#utility.yul\":1159:1172   */\n  mload\n    /* \"#utility.yul\":1150:1172   */\n  swap1\n  pop\n    /* \"#utility.yul\":1181:1213   */\n  tag_43\n    /* \"#utility.yul\":1207:1212   */\n  dup2\n    /* \"#utility.yul\":1181:1213   */\n  tag_18\n  jump\t// in\ntag_43:\n    /* \"#utility.yul\":1078:1219   */\n  swap3\n  swap2\n  pop\n  pop\n  jump\t// out\n    /* \"#utility.yul\":1225:1302   */\ntag_20:\n    /* \"#utility.yul\":1262:1269   */\n  0x00\n    /* \"#utility.yul\":1291:1296   */\n  dup2\n    /* \"#utility.yul\":1280:1296   */\n  swap1\n  pop\n    /* \"#utility.yul\":1225:1302   */\n  swap2\n  swap1\n  pop\n  jump\t// out\n    /* \"#utility.yul\":1308:1430   */\ntag_21:\n    /* \"#utility.yul\":1381:1405   */\n  tag_46\n    /* \"#utility.yul\":1399:1404   */\n  dup2\n    /* \"#utility.yul\":1381:1405   */\n  tag_20\n  jump\t// in\ntag_46:\n    /* \"#utility.yul\":1374:1379   */\n  dup2\n    /* \"#utility.yul\":1371:1406   */\n  eq\n    /* \"#utility.yul\":1361:1424   */\n  tag_47\n  jumpi\n    /* \"#utility.yul\":1420:1421   */\n  0x00\n    /* \"#utility.yul\":1417:1418   */\n  dup1\n    /* \"#utility.yul\":1410:1422   */\n  revert\n    /* \"#utility.yul\":1361:1424   */\ntag_47:\n    /* \"#utility.yul\":1308:1430   */\n  pop\n  jump\t// out\n    /* \"#utility.yul\":1436:1579   */\ntag_22:\n    /* \"#utility.yul\":1493:1498   */\n  0x00\n    /* \"#utility.yul\":1524:1530   */\n  dup2\n    /* \"#utility.yul\":1518:1531   */\n  mload\n    /* \"#utility.yul\":1509:1531   */\n  swap1\n  pop\n    /* \"#utility.yul\":1540:1573   */\n  tag_49\n    /* \"#utility.yul\":1567:1572   */\n  dup2\n    /* \"#utility.yul\":1540:1573   */\n  tag_21\n  jump\t// in\ntag_49:\n    /* \"#utility.yul\":1436:1579   */\n  swap3\n  swap2\n  pop\n  pop\n  jump\t// out\n    /* \"#utility.yul\":1585:1662   */\ntag_23:\n    /* \"#utility.yul\":1622:1629   */\n  0x00\n    /* \"#utility.yul\":1651:1656   */\n  dup2\n    /* \"#utility.yul\":1640:1656   */\n  swap1\n  pop\n    /* \"#utility.yul\":1585:1662   */\n  swap2\n  swap1\n  pop\n  jump\t// out\n    /* \"#utility.yul\":1668:1790   */\ntag_24:\n    /* \"#utility.yul\":1741:1765   */\n  tag_52\n    /* \"#utility.yul\":1759:1764   */\n  dup2\n    /* \"#utility.yul\":1741:1765   */\n  tag_23\n  jump\t// in\ntag_52:\n    /* \"#utility.yul\":1734:1739   */\n  dup2\n    /* \"#utility.yul\":1731:1766   */\n  eq\n    /* \"#utility.yul\":1721:1784   */\n  tag_53\n  jumpi\n    /* \"#utility.yul\":1780:1781   */\n  0x00\n    /* \"#utility.yul\":1777:1778   */\n  dup1\n    /* \"#utility.yul\":1770:1782   */\n  revert\n    /* \"#utility.yul\":1721:1784   */\ntag_53:\n    /* \"#utility.yul\":1668:1790   */\n  pop\n  jump\t// out\n    /* \"#utility.yul\":1796:1939   */\ntag_25:\n    /* \"#utility.yul\":1853:1858   */\n  0x00\n    /* \"#utility.yul\":1884:1890   */\n  dup2\n    /* \"#utility.yul\":1878:1891   */\n  mload\n    /* \"#utility.yul\":1869:1891   */\n  swap1\n  pop\n    /* \"#utility.yul\":1900:1933   */\n  tag_55\n    /* \"#utility.yul\":1927:1932   */\n  dup2\n    /* \"#utility.yul\":1900:1933   */\n  tag_24\n  jump\t// in\ntag_55:\n    /* \"#utility.yul\":1796:1939   */\n  swap3\n  swap2\n  pop\n  pop\n  jump\t// out\n    /* \"#utility.yul\":1945:2920   */\ntag_3:\n    /* \"#utility.yul\":2050:2056   */\n  0x00\n    /* \"#utility.yul\":2058:2064   */\n  dup1\n    /* \"#utility.yul\":2066:2072   */\n  0x00\n    /* \"#utility.yul\":2074:2080   */\n  dup1\n    /* \"#utility.yul\":2082:2088   */\n  0x00\n    /* \"#utility.yul\":2131:2134   */\n  0xa0\n    /* \"#utility.yul\":2119:2128   */\n  dup7\n    /* \"#utility.yul\":2110:2117   */\n  dup9\n    /* \"#utility.yul\":2106:2129   */\n  sub\n    /* \"#utility.yul\":2102:2135   */\n  slt\n    /* \"#utility.yul\":2099:2219   */\n  iszero\n  tag_57\n  jumpi\n    /* \"#utility.yul\":2138:2217   */\n  tag_58\n  tag_11\n  jump\t// in\ntag_58:\n    /* \"#utility.yul\":2099:2219   */\ntag_57:\n    /* \"#utility.yul\":2258:2259   */\n  0x00\n    /* \"#utility.yul\":2283:2347   */\n  tag_59\n    /* \"#utility.yul\":2339:2346   */\n  dup9\n    /* \"#utility.yul\":2330:2336   */\n  dup3\n    /* \"#utility.yul\":2319:2328   */\n  dup10\n    /* \"#utility.yul\":2315:2337   */\n  add\n    /* \"#utility.yul\":2283:2347   */\n  tag_16\n  jump\t// in\ntag_59:\n    /* \"#utility.yul\":2273:2347   */\n  swap6\n  pop\n    /* \"#utility.yul\":2229:2357   */\n  pop\n    /* \"#utility.yul\":2396:2398   */\n  0x20\n    /* \"#utility.yul\":2422:2485   */\n  tag_60\n    /* \"#utility.yul\":2477:2484   */\n  dup9\n    /* \"#utility.yul\":2468:2474   */\n  dup3\n    /* \"#utility.yul\":2457:2466   */\n  dup10\n    /* \"#utility.yul\":2453:2475   */\n  add\n    /* \"#utility.yul\":2422:2485   */\n  tag_19\n  jump\t// in\ntag_60:\n    /* \"#utility.yul\":2412:2485   */\n  swap5\n  pop\n    /* \"#utility.yul\":2367:2495   */\n  pop\n    /* \"#utility.yul\":2534:2536   */\n  0x40\n    /* \"#utility.yul\":2560:2624   */\n  tag_61\n    /* \"#utility.yul\":2616:2623   */\n  dup9\n    /* \"#utility.yul\":2607:2613   */\n  dup3\n    /* \"#utility.yul\":2596:2605   */\n  dup10\n    /* \"#utility.yul\":2592:2614   */\n  add\n    /* \"#utility.yul\":2560:2624   */\n  tag_22\n  jump\t// in\ntag_61:\n    /* \"#utility.yul\":2550:2624   */\n  swap4\n  pop\n    /* \"#utility.yul\":2505:2634   */\n  pop\n    /* \"#utility.yul\":2673:2675   */\n  0x60\n    /* \"#utility.yul\":2699:2763   */\n  tag_62\n    /* \"#utility.yul\":2755:2762   */\n  dup9\n    /* \"#utility.yul\":2746:2752   */\n  dup3\n    /* \"#utility.yul\":2735:2744   */\n  dup10\n    /* \"#utility.yul\":2731:2753   */\n  add\n    /* \"#utility.yul\":2699:2763   */\n  tag_16\n  jump\t// in\ntag_62:\n    /* \"#utility.yul\":2689:2763   */\n  swap3\n  pop\n    /* \"#utility.yul\":2644:2773   */\n  pop\n    /* \"#utility.yul\":2812:2815   */\n  0x80\n    /* \"#utility.yul\":2839:2903   */\n  tag_63\n    /* \"#utility.yul\":2895:2902   */\n  dup9\n    /* \"#utility.yul\":2886:2892   */\n  dup3\n    /* \"#utility.yul\":2875:2884   */\n  dup10\n    /* \"#utility.yul\":2871:2893   */\n  add\n    /* \"#utility.yul\":2839:2903   */\n  tag_25\n  jump\t// in\ntag_63:\n    /* \"#utility.yul\":2829:2903   */\n  swap2\n  pop\n    /* \"#utility.yul\":2783:2913   */\n  pop\n    /* \"#utility.yul\":1945:2920   */\n  swap3\n  swap6\n  pop\n  swap3\n  swap6\n  swap1\n  swap4\n  pop\n  jump\t// out\n    /* \"contracts/Verifier.sol\":314:2095  contract Verifier is AxiomV2Client {... */\ntag_9:\n  mload(0x80)\n  mload(0xa0)\n  mload(0xc0)\n  mload(0xe0)\n  codecopy(0x00, dataOffset(sub_0), dataSize(sub_0))\n  0x00\n  assignImmutable(\"0x277ab82e5a4641341820a4a2933a62c1de997e42e92548657ae21b3728d580fe\")\n  0x00\n  assignImmutable(\"0x7880aec93413f117ef14bd4e6d130875ab2c7d7d55a064fac3c2f7bd51516380\")\n  0x00\n  assignImmutable(\"0xd2f8f61201b2b11a78d6e866abc9c3db2ae8631fa656bfe5cb53668255367afb\")\n  0x00\n  assignImmutable(\"0x391cad19c81a4773de6b9365ea023cc0a7fd2c96665694aa047da79f41f9a730\")\n  return(0x00, dataSize(sub_0))\nstop\n\nsub_0: assembly {\n        /* \"contracts/Verifier.sol\":314:2095  contract Verifier is AxiomV2Client {... */\n      mstore(0x40, 0x80)\n      callvalue\n      dup1\n      iszero\n      tag_1\n      jumpi\n      0x00\n      dup1\n      revert\n    tag_1:\n      pop\n      jumpi(tag_2, lt(calldatasize, 0x04))\n      shr(0xe0, calldataload(0x00))\n      dup1\n      0x2a75d3be\n      eq\n      tag_3\n      jumpi\n      dup1\n      0x8193399c\n      eq\n      tag_4\n      jumpi\n      dup1\n      0xdc5cd53c\n      eq\n      tag_5\n      jumpi\n    tag_2:\n      0x00\n      dup1\n      revert\n        /* \"https://github.com/axiom-crypto/axiom-v2-periphery/blob/main/src/client/AxiomV2Client.sol\":225:269  address public immutable axiomV2QueryAddress */\n    tag_3:\n      tag_6\n      tag_7\n      jump\t// in\n    tag_6:\n      mload(0x40)\n      tag_8\n      swap2\n      swap1\n      tag_9\n      jump\t// in\n    tag_8:\n      mload(0x40)\n      dup1\n      swap2\n      sub\n      swap1\n      return\n        /* \"https://github.com/axiom-crypto/axiom-v2-periphery/blob/main/src/client/AxiomV2Client.sol\":1606:2240  function axiomV2OffchainCallback(... */\n    tag_4:\n      tag_10\n      0x04\n      dup1\n      calldatasize\n      sub\n      dup2\n      add\n      swap1\n      tag_11\n      swap2\n      swap1\n      tag_12\n      jump\t// in\n    tag_11:\n      tag_13\n      jump\t// in\n    tag_10:\n      stop\n        /* \"https://github.com/axiom-crypto/axiom-v2-periphery/blob/main/src/client/AxiomV2Client.sol\":948:1565  function axiomV2Callback(... */\n    tag_5:\n      tag_14\n      0x04\n      dup1\n      calldatasize\n      sub\n      dup2\n      add\n      swap1\n      tag_15\n      swap2\n      swap1\n      tag_12\n      jump\t// in\n    tag_15:\n      tag_16\n      jump\t// in\n    tag_14:\n      stop\n        /* \"https://github.com/axiom-crypto/axiom-v2-periphery/blob/main/src/client/AxiomV2Client.sol\":225:269  address public immutable axiomV2QueryAddress */\n    tag_7:\n      immutable(\"0x391cad19c81a4773de6b9365ea023cc0a7fd2c96665694aa047da79f41f9a730\")\n      dup2\n      jump\t// out\n        /* \"https://github.com/axiom-crypto/axiom-v2-periphery/blob/main/src/client/AxiomV2Client.sol\":1606:2240  function axiomV2OffchainCallback(... */\n    tag_13:\n        /* \"https://github.com/axiom-crypto/axiom-v2-periphery/blob/main/src/client/AxiomV2Client.sol\":1865:1884  axiomV2QueryAddress */\n      immutable(\"0x391cad19c81a4773de6b9365ea023cc0a7fd2c96665694aa047da79f41f9a730\")\n        /* \"https://github.com/axiom-crypto/axiom-v2-periphery/blob/main/src/client/AxiomV2Client.sol\":1851:1884  msg.sender != axiomV2QueryAddress */\n      0xffffffffffffffffffffffffffffffffffffffff\n      and\n        /* \"https://github.com/axiom-crypto/axiom-v2-periphery/blob/main/src/client/AxiomV2Client.sol\":1851:1861  msg.sender */\n      caller\n        /* \"https://github.com/axiom-crypto/axiom-v2-periphery/blob/main/src/client/AxiomV2Client.sol\":1851:1884  msg.sender != axiomV2QueryAddress */\n      0xffffffffffffffffffffffffffffffffffffffff\n      and\n      eq\n        /* \"https://github.com/axiom-crypto/axiom-v2-periphery/blob/main/src/client/AxiomV2Client.sol\":1847:1944  if (msg.sender != axiomV2QueryAddress) {... */\n      tag_18\n      jumpi\n        /* \"https://github.com/axiom-crypto/axiom-v2-periphery/blob/main/src/client/AxiomV2Client.sol\":1907:1933  CallerMustBeAxiomV2Query() */\n      mload(0x40)\n      0x25ce393e00000000000000000000000000000000000000000000000000000000\n      dup2\n      mstore\n      0x04\n      add\n      mload(0x40)\n      dup1\n      swap2\n      sub\n      swap1\n      revert\n        /* \"https://github.com/axiom-crypto/axiom-v2-periphery/blob/main/src/client/AxiomV2Client.sol\":1847:1944  if (msg.sender != axiomV2QueryAddress) {... */\n    tag_18:\n        /* \"https://github.com/axiom-crypto/axiom-v2-periphery/blob/main/src/client/AxiomV2Client.sol\":2014:2021  queryId */\n      dup5\n        /* \"https://github.com/axiom-crypto/axiom-v2-periphery/blob/main/src/client/AxiomV2Client.sol\":2001:2012  querySchema */\n      dup7\n        /* \"https://github.com/axiom-crypto/axiom-v2-periphery/blob/main/src/client/AxiomV2Client.sol\":1978:1991  sourceChainId */\n      dup10\n        /* \"https://github.com/axiom-crypto/axiom-v2-periphery/blob/main/src/client/AxiomV2Client.sol\":1958:2022  AxiomV2OffchainCall(sourceChainId, caller, querySchema, queryId) */\n      0xffffffffffffffff\n      and\n      0xd6d9923f6afa6ae6afc97c99da22b8ccadc9beafe897857b2434da0a402da98c\n        /* \"https://github.com/axiom-crypto/axiom-v2-periphery/blob/main/src/client/AxiomV2Client.sol\":1993:1999  caller */\n      dup11\n        /* \"https://github.com/axiom-crypto/axiom-v2-periphery/blob/main/src/client/AxiomV2Client.sol\":1958:2022  AxiomV2OffchainCall(sourceChainId, caller, querySchema, queryId) */\n      mload(0x40)\n      tag_19\n      swap2\n      swap1\n      tag_9\n      jump\t// in\n    tag_19:\n      mload(0x40)\n      dup1\n      swap2\n      sub\n      swap1\n      log4\n        /* \"https://github.com/axiom-crypto/axiom-v2-periphery/blob/main/src/client/AxiomV2Client.sol\":2033:2137  _validateAxiomV2Call(AxiomCallbackType.OffChain, sourceChainId, caller, querySchema, queryId, extraData) */\n      tag_20\n        /* \"https://github.com/axiom-crypto/axiom-v2-periphery/blob/main/src/client/AxiomV2Client.sol\":2054:2080  AxiomCallbackType.OffChain */\n      0x01\n        /* \"https://github.com/axiom-crypto/axiom-v2-periphery/blob/main/src/client/AxiomV2Client.sol\":2082:2095  sourceChainId */\n      dup10\n        /* \"https://github.com/axiom-crypto/axiom-v2-periphery/blob/main/src/client/AxiomV2Client.sol\":2097:2103  caller */\n      dup10\n        /* \"https://github.com/axiom-crypto/axiom-v2-periphery/blob/main/src/client/AxiomV2Client.sol\":2105:2116  querySchema */\n      dup10\n        /* \"https://github.com/axiom-crypto/axiom-v2-periphery/blob/main/src/client/AxiomV2Client.sol\":2118:2125  queryId */\n      dup10\n        /* \"https://github.com/axiom-crypto/axiom-v2-periphery/blob/main/src/client/AxiomV2Client.sol\":2127:2136  extraData */\n      dup8\n      dup8\n        /* \"https://github.com/axiom-crypto/axiom-v2-periphery/blob/main/src/client/AxiomV2Client.sol\":2033:2053  _validateAxiomV2Call */\n      tag_21\n        /* \"https://github.com/axiom-crypto/axiom-v2-periphery/blob/main/src/client/AxiomV2Client.sol\":2033:2137  _validateAxiomV2Call(AxiomCallbackType.OffChain, sourceChainId, caller, querySchema, queryId, extraData) */\n      jump\t// in\n    tag_20:\n        /* \"https://github.com/axiom-crypto/axiom-v2-periphery/blob/main/src/client/AxiomV2Client.sol\":2147:2233  _axiomV2Callback(sourceChainId, caller, querySchema, queryId, axiomResults, extraData) */\n      tag_22\n        /* \"https://github.com/axiom-crypto/axiom-v2-periphery/blob/main/src/client/AxiomV2Client.sol\":2164:2177  sourceChainId */\n      dup9\n        /* \"https://github.com/axiom-crypto/axiom-v2-periphery/blob/main/src/client/AxiomV2Client.sol\":2179:2185  caller */\n      dup9\n        /* \"https://github.com/axiom-crypto/axiom-v2-periphery/blob/main/src/client/AxiomV2Client.sol\":2187:2198  querySchema */\n      dup9\n        /* \"https://github.com/axiom-crypto/axiom-v2-periphery/blob/main/src/client/AxiomV2Client.sol\":2200:2207  queryId */\n      dup9\n        /* \"https://github.com/axiom-crypto/axiom-v2-periphery/blob/main/src/client/AxiomV2Client.sol\":2209:2221  axiomResults */\n      dup9\n      dup9\n        /* \"https://github.com/axiom-crypto/axiom-v2-periphery/blob/main/src/client/AxiomV2Client.sol\":2223:2232  extraData */\n      dup9\n      dup9\n        /* \"https://github.com/axiom-crypto/axiom-v2-periphery/blob/main/src/client/AxiomV2Client.sol\":2147:2163  _axiomV2Callback */\n      tag_23\n        /* \"https://github.com/axiom-crypto/axiom-v2-periphery/blob/main/src/client/AxiomV2Client.sol\":2147:2233  _axiomV2Callback(sourceChainId, caller, querySchema, queryId, axiomResults, extraData) */\n      jump\t// in\n    tag_22:\n        /* \"https://github.com/axiom-crypto/axiom-v2-periphery/blob/main/src/client/AxiomV2Client.sol\":1606:2240  function axiomV2OffchainCallback(... */\n      pop\n      pop\n      pop\n      pop\n      pop\n      pop\n      pop\n      pop\n      jump\t// out\n        /* \"https://github.com/axiom-crypto/axiom-v2-periphery/blob/main/src/client/AxiomV2Client.sol\":948:1565  function axiomV2Callback(... */\n    tag_16:\n        /* \"https://github.com/axiom-crypto/axiom-v2-periphery/blob/main/src/client/AxiomV2Client.sol\":1199:1218  axiomV2QueryAddress */\n      immutable(\"0x391cad19c81a4773de6b9365ea023cc0a7fd2c96665694aa047da79f41f9a730\")\n        /* \"https://github.com/axiom-crypto/axiom-v2-periphery/blob/main/src/client/AxiomV2Client.sol\":1185:1218  msg.sender != axiomV2QueryAddress */\n      0xffffffffffffffffffffffffffffffffffffffff\n      and\n        /* \"https://github.com/axiom-crypto/axiom-v2-periphery/blob/main/src/client/AxiomV2Client.sol\":1185:1195  msg.sender */\n      caller\n        /* \"https://github.com/axiom-crypto/axiom-v2-periphery/blob/main/src/client/AxiomV2Client.sol\":1185:1218  msg.sender != axiomV2QueryAddress */\n      0xffffffffffffffffffffffffffffffffffffffff\n      and\n      eq\n        /* \"https://github.com/axiom-crypto/axiom-v2-periphery/blob/main/src/client/AxiomV2Client.sol\":1181:1278  if (msg.sender != axiomV2QueryAddress) {... */\n      tag_25\n      jumpi\n        /* \"https://github.com/axiom-crypto/axiom-v2-periphery/blob/main/src/client/AxiomV2Client.sol\":1241:1267  CallerMustBeAxiomV2Query() */\n      mload(0x40)\n      0x25ce393e00000000000000000000000000000000000000000000000000000000\n      dup2\n      mstore\n      0x04\n      add\n      mload(0x40)\n      dup1\n      swap2\n      sub\n      swap1\n      revert\n        /* \"https://github.com/axiom-crypto/axiom-v2-periphery/blob/main/src/client/AxiomV2Client.sol\":1181:1278  if (msg.sender != axiomV2QueryAddress) {... */\n    tag_25:\n        /* \"https://github.com/axiom-crypto/axiom-v2-periphery/blob/main/src/client/AxiomV2Client.sol\":1340:1347  queryId */\n      dup5\n        /* \"https://github.com/axiom-crypto/axiom-v2-periphery/blob/main/src/client/AxiomV2Client.sol\":1327:1338  querySchema */\n      dup7\n        /* \"https://github.com/axiom-crypto/axiom-v2-periphery/blob/main/src/client/AxiomV2Client.sol\":1304:1317  sourceChainId */\n      dup10\n        /* \"https://github.com/axiom-crypto/axiom-v2-periphery/blob/main/src/client/AxiomV2Client.sol\":1292:1348  AxiomV2Call(sourceChainId, caller, querySchema, queryId) */\n      0xffffffffffffffff\n      and\n      0xc6d3309bf887e48755c9a455e332b73641b6bf2fd018e3b608bf21676c4c0af5\n        /* \"https://github.com/axiom-crypto/axiom-v2-periphery/blob/main/src/client/AxiomV2Client.sol\":1319:1325  caller */\n      dup11\n        /* \"https://github.com/axiom-crypto/axiom-v2-periphery/blob/main/src/client/AxiomV2Client.sol\":1292:1348  AxiomV2Call(sourceChainId, caller, querySchema, queryId) */\n      mload(0x40)\n      tag_26\n      swap2\n      swap1\n      tag_9\n      jump\t// in\n    tag_26:\n      mload(0x40)\n      dup1\n      swap2\n      sub\n      swap1\n      log4\n        /* \"https://github.com/axiom-crypto/axiom-v2-periphery/blob/main/src/client/AxiomV2Client.sol\":1359:1462  _validateAxiomV2Call(AxiomCallbackType.OnChain, sourceChainId, caller, querySchema, queryId, extraData) */\n      tag_27\n        /* \"https://github.com/axiom-crypto/axiom-v2-periphery/blob/main/src/client/AxiomV2Client.sol\":1380:1405  AxiomCallbackType.OnChain */\n      0x00\n        /* \"https://github.com/axiom-crypto/axiom-v2-periphery/blob/main/src/client/AxiomV2Client.sol\":1407:1420  sourceChainId */\n      dup10\n        /* \"https://github.com/axiom-crypto/axiom-v2-periphery/blob/main/src/client/AxiomV2Client.sol\":1422:1428  caller */\n      dup10\n        /* \"https://github.com/axiom-crypto/axiom-v2-periphery/blob/main/src/client/AxiomV2Client.sol\":1430:1441  querySchema */\n      dup10\n        /* \"https://github.com/axiom-crypto/axiom-v2-periphery/blob/main/src/client/AxiomV2Client.sol\":1443:1450  queryId */\n      dup10\n        /* \"https://github.com/axiom-crypto/axiom-v2-periphery/blob/main/src/client/AxiomV2Client.sol\":1452:1461  extraData */\n      dup8\n      dup8\n        /* \"https://github.com/axiom-crypto/axiom-v2-periphery/blob/main/src/client/AxiomV2Client.sol\":1359:1379  _validateAxiomV2Call */\n      tag_21\n        /* \"https://github.com/axiom-crypto/axiom-v2-periphery/blob/main/src/client/AxiomV2Client.sol\":1359:1462  _validateAxiomV2Call(AxiomCallbackType.OnChain, sourceChainId, caller, querySchema, queryId, extraData) */\n      jump\t// in\n    tag_27:\n        /* \"https://github.com/axiom-crypto/axiom-v2-periphery/blob/main/src/client/AxiomV2Client.sol\":1472:1558  _axiomV2Callback(sourceChainId, caller, querySchema, queryId, axiomResults, extraData) */\n      tag_28\n        /* \"https://github.com/axiom-crypto/axiom-v2-periphery/blob/main/src/client/AxiomV2Client.sol\":1489:1502  sourceChainId */\n      dup9\n        /* \"https://github.com/axiom-crypto/axiom-v2-periphery/blob/main/src/client/AxiomV2Client.sol\":1504:1510  caller */\n      dup9\n        /* \"https://github.com/axiom-crypto/axiom-v2-periphery/blob/main/src/client/AxiomV2Client.sol\":1512:1523  querySchema */\n      dup9\n        /* \"https://github.com/axiom-crypto/axiom-v2-periphery/blob/main/src/client/AxiomV2Client.sol\":1525:1532  queryId */\n      dup9\n        /* \"https://github.com/axiom-crypto/axiom-v2-periphery/blob/main/src/client/AxiomV2Client.sol\":1534:1546  axiomResults */\n      dup9\n      dup9\n        /* \"https://github.com/axiom-crypto/axiom-v2-periphery/blob/main/src/client/AxiomV2Client.sol\":1548:1557  extraData */\n      dup9\n      dup9\n        /* \"https://github.com/axiom-crypto/axiom-v2-periphery/blob/main/src/client/AxiomV2Client.sol\":1472:1488  _axiomV2Callback */\n      tag_23\n        /* \"https://github.com/axiom-crypto/axiom-v2-periphery/blob/main/src/client/AxiomV2Client.sol\":1472:1558  _axiomV2Callback(sourceChainId, caller, querySchema, queryId, axiomResults, extraData) */\n      jump\t// in\n    tag_28:\n        /* \"https://github.com/axiom-crypto/axiom-v2-periphery/blob/main/src/client/AxiomV2Client.sol\":948:1565  function axiomV2Callback(... */\n      pop\n      pop\n      pop\n      pop\n      pop\n      pop\n      pop\n      pop\n      jump\t// out\n        /* \"contracts/Verifier.sol\":1016:1391  function _validateAxiomV2Call(... */\n    tag_21:\n        /* \"contracts/Verifier.sol\":1262:1277  SOURCE_CHAIN_ID */\n      immutable(\"0x7880aec93413f117ef14bd4e6d130875ab2c7d7d55a064fac3c2f7bd51516380\")\n        /* \"contracts/Verifier.sol\":1245:1277  sourceChainId == SOURCE_CHAIN_ID */\n      0xffffffffffffffff\n      and\n        /* \"contracts/Verifier.sol\":1245:1258  sourceChainId */\n      dup7\n        /* \"contracts/Verifier.sol\":1245:1277  sourceChainId == SOURCE_CHAIN_ID */\n      0xffffffffffffffff\n      and\n      eq\n        /* \"contracts/Verifier.sol\":1237:1312  require(sourceChainId == SOURCE_CHAIN_ID, \"Source chain ID does not match\") */\n      tag_30\n      jumpi\n      mload(0x40)\n      0x08c379a000000000000000000000000000000000000000000000000000000000\n      dup2\n      mstore\n      0x04\n      add\n      tag_31\n      swap1\n      tag_32\n      jump\t// in\n    tag_31:\n      mload(0x40)\n      dup1\n      swap2\n      sub\n      swap1\n      revert\n    tag_30:\n        /* \"contracts/Verifier.sol\":1346:1358  QUERY_SCHEMA */\n      immutable(\"0xd2f8f61201b2b11a78d6e866abc9c3db2ae8631fa656bfe5cb53668255367afb\")\n        /* \"contracts/Verifier.sol\":1331:1342  querySchema */\n      dup5\n        /* \"contracts/Verifier.sol\":1331:1358  querySchema == QUERY_SCHEMA */\n      eq\n        /* \"contracts/Verifier.sol\":1323:1383  require(querySchema == QUERY_SCHEMA, \"Invalid query schema\") */\n      tag_33\n      jumpi\n      mload(0x40)\n      0x08c379a000000000000000000000000000000000000000000000000000000000\n      dup2\n      mstore\n      0x04\n      add\n      tag_34\n      swap1\n      tag_35\n      jump\t// in\n    tag_34:\n      mload(0x40)\n      dup1\n      swap2\n      sub\n      swap1\n      revert\n    tag_33:\n        /* \"contracts/Verifier.sol\":1016:1391  function _validateAxiomV2Call(... */\n      pop\n      pop\n      pop\n      pop\n      pop\n      pop\n      pop\n      jump\t// out\n        /* \"contracts/Verifier.sol\":1434:2092  function _axiomV2Callback(... */\n    tag_23:\n        /* \"contracts/Verifier.sol\":1635:1654  uint256 blockNumber */\n      0x00\n        /* \"contracts/Verifier.sol\":1665:1677  axiomResults */\n      dup5\n      dup5\n        /* \"contracts/Verifier.sol\":1678:1679  0 */\n      0x00\n        /* \"contracts/Verifier.sol\":1665:1680  axiomResults[0] */\n      dup2\n      dup2\n      lt\n      tag_37\n      jumpi\n      tag_38\n      tag_39\n      jump\t// in\n    tag_38:\n    tag_37:\n      swap1\n      pop\n      0x20\n      mul\n      add\n      calldataload\n        /* \"contracts/Verifier.sol\":1657:1681  uint256(axiomResults[0]) */\n      0x00\n      shr\n        /* \"contracts/Verifier.sol\":1635:1681  uint256 blockNumber = uint256(axiomResults[0]) */\n      swap1\n      pop\n        /* \"contracts/Verifier.sol\":1692:1706  address sender */\n      0x00\n        /* \"contracts/Verifier.sol\":1733:1745  axiomResults */\n      dup6\n      dup6\n        /* \"contracts/Verifier.sol\":1746:1747  1 */\n      0x01\n        /* \"contracts/Verifier.sol\":1733:1748  axiomResults[1] */\n      dup2\n      dup2\n      lt\n      tag_40\n      jumpi\n      tag_41\n      tag_39\n      jump\t// in\n    tag_41:\n    tag_40:\n      swap1\n      pop\n      0x20\n      mul\n      add\n      calldataload\n        /* \"contracts/Verifier.sol\":1725:1749  uint256(axiomResults[1]) */\n      0x00\n      shr\n        /* \"contracts/Verifier.sol\":1692:1751  address sender = address(uint160(uint256(axiomResults[1]))) */\n      swap1\n      pop\n        /* \"contracts/Verifier.sol\":1762:1778  address receiver */\n      0x00\n        /* \"contracts/Verifier.sol\":1805:1817  axiomResults */\n      dup7\n      dup7\n        /* \"contracts/Verifier.sol\":1818:1819  2 */\n      0x02\n        /* \"contracts/Verifier.sol\":1805:1820  axiomResults[2] */\n      dup2\n      dup2\n      lt\n      tag_42\n      jumpi\n      tag_43\n      tag_39\n      jump\t// in\n    tag_43:\n    tag_42:\n      swap1\n      pop\n      0x20\n      mul\n      add\n      calldataload\n        /* \"contracts/Verifier.sol\":1797:1821  uint256(axiomResults[2]) */\n      0x00\n      shr\n        /* \"contracts/Verifier.sol\":1762:1823  address receiver = address(uint160(uint256(axiomResults[2]))) */\n      swap1\n      pop\n        /* \"contracts/Verifier.sol\":1834:1847  address token */\n      0x00\n        /* \"contracts/Verifier.sol\":1874:1886  axiomResults */\n      dup8\n      dup8\n        /* \"contracts/Verifier.sol\":1887:1888  3 */\n      0x03\n        /* \"contracts/Verifier.sol\":1874:1889  axiomResults[3] */\n      dup2\n      dup2\n      lt\n      tag_44\n      jumpi\n      tag_45\n      tag_39\n      jump\t// in\n    tag_45:\n    tag_44:\n      swap1\n      pop\n      0x20\n      mul\n      add\n      calldataload\n        /* \"contracts/Verifier.sol\":1866:1890  uint256(axiomResults[3]) */\n      0x00\n      shr\n        /* \"contracts/Verifier.sol\":1834:1892  address token = address(uint160(uint256(axiomResults[3]))) */\n      swap1\n      pop\n        /* \"contracts/Verifier.sol\":1903:1917  uint256 amount */\n      0x00\n        /* \"contracts/Verifier.sol\":1928:1940  axiomResults */\n      dup9\n      dup9\n        /* \"contracts/Verifier.sol\":1941:1942  4 */\n      0x04\n        /* \"contracts/Verifier.sol\":1928:1943  axiomResults[4] */\n      dup2\n      dup2\n      lt\n      tag_46\n      jumpi\n      tag_47\n      tag_39\n      jump\t// in\n    tag_47:\n    tag_46:\n      swap1\n      pop\n      0x20\n      mul\n      add\n      calldataload\n        /* \"contracts/Verifier.sol\":1920:1944  uint256(axiomResults[4]) */\n      0x00\n      shr\n        /* \"contracts/Verifier.sol\":1903:1944  uint256 amount = uint256(axiomResults[4]) */\n      swap1\n      pop\n        /* \"contracts/Verifier.sol\":1957:1967  BASE_TOKEN */\n      0x00\n      dup1\n      sload\n      swap1\n      0x0100\n      exp\n      swap1\n      div\n      0xffffffffffffffffffffffffffffffffffffffff\n      and\n        /* \"contracts/Verifier.sol\":1957:1976  BASE_TOKEN.transfer */\n      0xffffffffffffffffffffffffffffffffffffffff\n      and\n      0xa9059cbb\n        /* \"contracts/Verifier.sol\":1977:1983  sender */\n      dup6\n        /* \"contracts/Verifier.sol\":1985:1998  REWARD_AMOUNT */\n      immutable(\"0x277ab82e5a4641341820a4a2933a62c1de997e42e92548657ae21b3728d580fe\")\n        /* \"contracts/Verifier.sol\":1957:1999  BASE_TOKEN.transfer(sender, REWARD_AMOUNT) */\n      mload(0x40)\n      dup4\n      0xffffffff\n      and\n      0xe0\n      shl\n      dup2\n      mstore\n      0x04\n      add\n      tag_48\n      swap3\n      swap2\n      swap1\n      tag_49\n      jump\t// in\n    tag_48:\n      0x20\n      mload(0x40)\n      dup1\n      dup4\n      sub\n      dup2\n      0x00\n      dup8\n      gas\n      call\n      iszero\n      dup1\n      iszero\n      tag_51\n      jumpi\n      returndatasize\n      0x00\n      dup1\n      returndatacopy\n      revert(0x00, returndatasize)\n    tag_51:\n      pop\n      pop\n      pop\n      pop\n      mload(0x40)\n      returndatasize\n      not(0x1f)\n      0x1f\n      dup3\n      add\n      and\n      dup3\n      add\n      dup1\n      0x40\n      mstore\n      pop\n      dup2\n      add\n      swap1\n      tag_52\n      swap2\n      swap1\n      tag_53\n      jump\t// in\n    tag_52:\n      pop\n        /* \"contracts/Verifier.sol\":2017:2084  TransferedAmountEvent(blockNumber, sender, receiver, token, amount) */\n      0x1b9cfc021e7abd6a012213816a673dfdbf689c83ac80ca1300377bd02eb1888d\n        /* \"contracts/Verifier.sol\":2039:2050  blockNumber */\n      dup6\n        /* \"contracts/Verifier.sol\":2052:2058  sender */\n      dup6\n        /* \"contracts/Verifier.sol\":2060:2068  receiver */\n      dup6\n        /* \"contracts/Verifier.sol\":2070:2075  token */\n      dup6\n        /* \"contracts/Verifier.sol\":2077:2083  amount */\n      dup6\n        /* \"contracts/Verifier.sol\":2017:2084  TransferedAmountEvent(blockNumber, sender, receiver, token, amount) */\n      mload(0x40)\n      tag_54\n      swap6\n      swap5\n      swap4\n      swap3\n      swap2\n      swap1\n      tag_55\n      jump\t// in\n    tag_54:\n      mload(0x40)\n      dup1\n      swap2\n      sub\n      swap1\n      log1\n        /* \"contracts/Verifier.sol\":1624:2092  {... */\n      pop\n      pop\n      pop\n      pop\n      pop\n        /* \"contracts/Verifier.sol\":1434:2092  function _axiomV2Callback(... */\n      pop\n      pop\n      pop\n      pop\n      pop\n      pop\n      pop\n      pop\n      jump\t// out\n        /* \"#utility.yul\":7:133   */\n    tag_56:\n        /* \"#utility.yul\":44:51   */\n      0x00\n        /* \"#utility.yul\":84:126   */\n      0xffffffffffffffffffffffffffffffffffffffff\n        /* \"#utility.yul\":77:82   */\n      dup3\n        /* \"#utility.yul\":73:127   */\n      and\n        /* \"#utility.yul\":62:127   */\n      swap1\n      pop\n        /* \"#utility.yul\":7:133   */\n      swap2\n      swap1\n      pop\n      jump\t// out\n        /* \"#utility.yul\":139:235   */\n    tag_57:\n        /* \"#utility.yul\":176:183   */\n      0x00\n        /* \"#utility.yul\":205:229   */\n      tag_90\n        /* \"#utility.yul\":223:228   */\n      dup3\n        /* \"#utility.yul\":205:229   */\n      tag_56\n      jump\t// in\n    tag_90:\n        /* \"#utility.yul\":194:229   */\n      swap1\n      pop\n        /* \"#utility.yul\":139:235   */\n      swap2\n      swap1\n      pop\n      jump\t// out\n        /* \"#utility.yul\":241:359   */\n    tag_58:\n        /* \"#utility.yul\":328:352   */\n      tag_92\n        /* \"#utility.yul\":346:351   */\n      dup2\n        /* \"#utility.yul\":328:352   */\n      tag_57\n      jump\t// in\n    tag_92:\n        /* \"#utility.yul\":323:326   */\n      dup3\n        /* \"#utility.yul\":316:353   */\n      mstore\n        /* \"#utility.yul\":241:359   */\n      pop\n      pop\n      jump\t// out\n        /* \"#utility.yul\":365:587   */\n    tag_9:\n        /* \"#utility.yul\":458:462   */\n      0x00\n        /* \"#utility.yul\":496:498   */\n      0x20\n        /* \"#utility.yul\":485:494   */\n      dup3\n        /* \"#utility.yul\":481:499   */\n      add\n        /* \"#utility.yul\":473:499   */\n      swap1\n      pop\n        /* \"#utility.yul\":509:580   */\n      tag_94\n        /* \"#utility.yul\":577:578   */\n      0x00\n        /* \"#utility.yul\":566:575   */\n      dup4\n        /* \"#utility.yul\":562:579   */\n      add\n        /* \"#utility.yul\":553:559   */\n      dup5\n        /* \"#utility.yul\":509:580   */\n      tag_58\n      jump\t// in\n    tag_94:\n        /* \"#utility.yul\":365:587   */\n      swap3\n      swap2\n      pop\n      pop\n      jump\t// out\n        /* \"#utility.yul\":674:791   */\n    tag_60:\n        /* \"#utility.yul\":783:784   */\n      0x00\n        /* \"#utility.yul\":780:781   */\n      dup1\n        /* \"#utility.yul\":773:785   */\n      revert\n        /* \"#utility.yul\":797:914   */\n    tag_61:\n        /* \"#utility.yul\":906:907   */\n      0x00\n        /* \"#utility.yul\":903:904   */\n      dup1\n        /* \"#utility.yul\":896:908   */\n      revert\n        /* \"#utility.yul\":920:1021   */\n    tag_62:\n        /* \"#utility.yul\":956:963   */\n      0x00\n        /* \"#utility.yul\":996:1014   */\n      0xffffffffffffffff\n        /* \"#utility.yul\":989:994   */\n      dup3\n        /* \"#utility.yul\":985:1015   */\n      and\n        /* \"#utility.yul\":974:1015   */\n      swap1\n      pop\n        /* \"#utility.yul\":920:1021   */\n      swap2\n      swap1\n      pop\n      jump\t// out\n        /* \"#utility.yul\":1027:1147   */\n    tag_63:\n        /* \"#utility.yul\":1099:1122   */\n      tag_100\n        /* \"#utility.yul\":1116:1121   */\n      dup2\n        /* \"#utility.yul\":1099:1122   */\n      tag_62\n      jump\t// in\n    tag_100:\n        /* \"#utility.yul\":1092:1097   */\n      dup2\n        /* \"#utility.yul\":1089:1123   */\n      eq\n        /* \"#utility.yul\":1079:1141   */\n      tag_101\n      jumpi\n        /* \"#utility.yul\":1137:1138   */\n      0x00\n        /* \"#utility.yul\":1134:1135   */\n      dup1\n        /* \"#utility.yul\":1127:1139   */\n      revert\n        /* \"#utility.yul\":1079:1141   */\n    tag_101:\n        /* \"#utility.yul\":1027:1147   */\n      pop\n      jump\t// out\n        /* \"#utility.yul\":1153:1290   */\n    tag_64:\n        /* \"#utility.yul\":1198:1203   */\n      0x00\n        /* \"#utility.yul\":1236:1242   */\n      dup2\n        /* \"#utility.yul\":1223:1243   */\n      calldataload\n        /* \"#utility.yul\":1214:1243   */\n      swap1\n      pop\n        /* \"#utility.yul\":1252:1284   */\n      tag_103\n        /* \"#utility.yul\":1278:1283   */\n      dup2\n        /* \"#utility.yul\":1252:1284   */\n      tag_63\n      jump\t// in\n    tag_103:\n        /* \"#utility.yul\":1153:1290   */\n      swap3\n      swap2\n      pop\n      pop\n      jump\t// out\n        /* \"#utility.yul\":1296:1418   */\n    tag_65:\n        /* \"#utility.yul\":1369:1393   */\n      tag_105\n        /* \"#utility.yul\":1387:1392   */\n      dup2\n        /* \"#utility.yul\":1369:1393   */\n      tag_57\n      jump\t// in\n    tag_105:\n        /* \"#utility.yul\":1362:1367   */\n      dup2\n        /* \"#utility.yul\":1359:1394   */\n      eq\n        /* \"#utility.yul\":1349:1412   */\n      tag_106\n      jumpi\n        /* \"#utility.yul\":1408:1409   */\n      0x00\n        /* \"#utility.yul\":1405:1406   */\n      dup1\n        /* \"#utility.yul\":1398:1410   */\n      revert\n        /* \"#utility.yul\":1349:1412   */\n    tag_106:\n        /* \"#utility.yul\":1296:1418   */\n      pop\n      jump\t// out\n        /* \"#utility.yul\":1424:1563   */\n    tag_66:\n        /* \"#utility.yul\":1470:1475   */\n      0x00\n        /* \"#utility.yul\":1508:1514   */\n      dup2\n        /* \"#utility.yul\":1495:1515   */\n      calldataload\n        /* \"#utility.yul\":1486:1515   */\n      swap1\n      pop\n        /* \"#utility.yul\":1524:1557   */\n      tag_108\n        /* \"#utility.yul\":1551:1556   */\n      dup2\n        /* \"#utility.yul\":1524:1557   */\n      tag_65\n      jump\t// in\n    tag_108:\n        /* \"#utility.yul\":1424:1563   */\n      swap3\n      swap2\n      pop\n      pop\n      jump\t// out\n        /* \"#utility.yul\":1569:1646   */\n    tag_67:\n        /* \"#utility.yul\":1606:1613   */\n      0x00\n        /* \"#utility.yul\":1635:1640   */\n      dup2\n        /* \"#utility.yul\":1624:1640   */\n      swap1\n      pop\n        /* \"#utility.yul\":1569:1646   */\n      swap2\n      swap1\n      pop\n      jump\t// out\n        /* \"#utility.yul\":1652:1774   */\n    tag_68:\n        /* \"#utility.yul\":1725:1749   */\n      tag_111\n        /* \"#utility.yul\":1743:1748   */\n      dup2\n        /* \"#utility.yul\":1725:1749   */\n      tag_67\n      jump\t// in\n    tag_111:\n        /* \"#utility.yul\":1718:1723   */\n      dup2\n        /* \"#utility.yul\":1715:1750   */\n      eq\n        /* \"#utility.yul\":1705:1768   */\n      tag_112\n      jumpi\n        /* \"#utility.yul\":1764:1765   */\n      0x00\n        /* \"#utility.yul\":1761:1762   */\n      dup1\n        /* \"#utility.yul\":1754:1766   */\n      revert\n        /* \"#utility.yul\":1705:1768   */\n    tag_112:\n        /* \"#utility.yul\":1652:1774   */\n      pop\n      jump\t// out\n        /* \"#utility.yul\":1780:1919   */\n    tag_69:\n        /* \"#utility.yul\":1826:1831   */\n      0x00\n        /* \"#utility.yul\":1864:1870   */\n      dup2\n        /* \"#utility.yul\":1851:1871   */\n      calldataload\n        /* \"#utility.yul\":1842:1871   */\n      swap1\n      pop\n        /* \"#utility.yul\":1880:1913   */\n      tag_114\n        /* \"#utility.yul\":1907:1912   */\n      dup2\n        /* \"#utility.yul\":1880:1913   */\n      tag_68\n      jump\t// in\n    tag_114:\n        /* \"#utility.yul\":1780:1919   */\n      swap3\n      swap2\n      pop\n      pop\n      jump\t// out\n        /* \"#utility.yul\":1925:2002   */\n    tag_70:\n        /* \"#utility.yul\":1962:1969   */\n      0x00\n        /* \"#utility.yul\":1991:1996   */\n      dup2\n        /* \"#utility.yul\":1980:1996   */\n      swap1\n      pop\n        /* \"#utility.yul\":1925:2002   */\n      swap2\n      swap1\n      pop\n      jump\t// out\n        /* \"#utility.yul\":2008:2130   */\n    tag_71:\n        /* \"#utility.yul\":2081:2105   */\n      tag_117\n        /* \"#utility.yul\":2099:2104   */\n      dup2\n        /* \"#utility.yul\":2081:2105   */\n      tag_70\n      jump\t// in\n    tag_117:\n        /* \"#utility.yul\":2074:2079   */\n      dup2\n        /* \"#utility.yul\":2071:2106   */\n      eq\n        /* \"#utility.yul\":2061:2124   */\n      tag_118\n      jumpi\n        /* \"#utility.yul\":2120:2121   */\n      0x00\n        /* \"#utility.yul\":2117:2118   */\n      dup1\n        /* \"#utility.yul\":2110:2122   */\n      revert\n        /* \"#utility.yul\":2061:2124   */\n    tag_118:\n        /* \"#utility.yul\":2008:2130   */\n      pop\n      jump\t// out\n        /* \"#utility.yul\":2136:2275   */\n    tag_72:\n        /* \"#utility.yul\":2182:2187   */\n      0x00\n        /* \"#utility.yul\":2220:2226   */\n      dup2\n        /* \"#utility.yul\":2207:2227   */\n      calldataload\n        /* \"#utility.yul\":2198:2227   */\n      swap1\n      pop\n        /* \"#utility.yul\":2236:2269   */\n      tag_120\n        /* \"#utility.yul\":2263:2268   */\n      dup2\n        /* \"#utility.yul\":2236:2269   */\n      tag_71\n      jump\t// in\n    tag_120:\n        /* \"#utility.yul\":2136:2275   */\n      swap3\n      swap2\n      pop\n      pop\n      jump\t// out\n        /* \"#utility.yul\":2281:2398   */\n    tag_73:\n        /* \"#utility.yul\":2390:2391   */\n      0x00\n        /* \"#utility.yul\":2387:2388   */\n      dup1\n        /* \"#utility.yul\":2380:2392   */\n      revert\n        /* \"#utility.yul\":2404:2521   */\n    tag_74:\n        /* \"#utility.yul\":2513:2514   */\n      0x00\n        /* \"#utility.yul\":2510:2511   */\n      dup1\n        /* \"#utility.yul\":2503:2515   */\n      revert\n        /* \"#utility.yul\":2527:2644   */\n    tag_75:\n        /* \"#utility.yul\":2636:2637   */\n      0x00\n        /* \"#utility.yul\":2633:2634   */\n      dup1\n        /* \"#utility.yul\":2626:2638   */\n      revert\n        /* \"#utility.yul\":2667:3235   */\n    tag_76:\n        /* \"#utility.yul\":2740:2748   */\n      0x00\n        /* \"#utility.yul\":2750:2756   */\n      dup1\n        /* \"#utility.yul\":2800:2803   */\n      dup4\n        /* \"#utility.yul\":2793:2797   */\n      0x1f\n        /* \"#utility.yul\":2785:2791   */\n      dup5\n        /* \"#utility.yul\":2781:2798   */\n      add\n        /* \"#utility.yul\":2777:2804   */\n      slt\n        /* \"#utility.yul\":2767:2889   */\n      tag_125\n      jumpi\n        /* \"#utility.yul\":2808:2887   */\n      tag_126\n      tag_73\n      jump\t// in\n    tag_126:\n        /* \"#utility.yul\":2767:2889   */\n    tag_125:\n        /* \"#utility.yul\":2921:2927   */\n      dup3\n        /* \"#utility.yul\":2908:2928   */\n      calldataload\n        /* \"#utility.yul\":2898:2928   */\n      swap1\n      pop\n        /* \"#utility.yul\":2951:2969   */\n      0xffffffffffffffff\n        /* \"#utility.yul\":2943:2949   */\n      dup2\n        /* \"#utility.yul\":2940:2970   */\n      gt\n        /* \"#utility.yul\":2937:3054   */\n      iszero\n      tag_127\n      jumpi\n        /* \"#utility.yul\":2973:3052   */\n      tag_128\n      tag_74\n      jump\t// in\n    tag_128:\n        /* \"#utility.yul\":2937:3054   */\n    tag_127:\n        /* \"#utility.yul\":3087:3091   */\n      0x20\n        /* \"#utility.yul\":3079:3085   */\n      dup4\n        /* \"#utility.yul\":3075:3092   */\n      add\n        /* \"#utility.yul\":3063:3092   */\n      swap2\n      pop\n        /* \"#utility.yul\":3141:3144   */\n      dup4\n        /* \"#utility.yul\":3133:3137   */\n      0x20\n        /* \"#utility.yul\":3125:3131   */\n      dup3\n        /* \"#utility.yul\":3121:3138   */\n      mul\n        /* \"#utility.yul\":3111:3119   */\n      dup4\n        /* \"#utility.yul\":3107:3139   */\n      add\n        /* \"#utility.yul\":3104:3145   */\n      gt\n        /* \"#utility.yul\":3101:3229   */\n      iszero\n      tag_129\n      jumpi\n        /* \"#utility.yul\":3148:3227   */\n      tag_130\n      tag_75\n      jump\t// in\n    tag_130:\n        /* \"#utility.yul\":3101:3229   */\n    tag_129:\n        /* \"#utility.yul\":2667:3235   */\n      swap3\n      pop\n      swap3\n      swap1\n      pop\n      jump\t// out\n        /* \"#utility.yul\":3254:3806   */\n    tag_77:\n        /* \"#utility.yul\":3311:3319   */\n      0x00\n        /* \"#utility.yul\":3321:3327   */\n      dup1\n        /* \"#utility.yul\":3371:3374   */\n      dup4\n        /* \"#utility.yul\":3364:3368   */\n      0x1f\n        /* \"#utility.yul\":3356:3362   */\n      dup5\n        /* \"#utility.yul\":3352:3369   */\n      add\n        /* \"#utility.yul\":3348:3375   */\n      slt\n        /* \"#utility.yul\":3338:3460   */\n      tag_132\n      jumpi\n        /* \"#utility.yul\":3379:3458   */\n      tag_133\n      tag_73\n      jump\t// in\n    tag_133:\n        /* \"#utility.yul\":3338:3460   */\n    tag_132:\n        /* \"#utility.yul\":3492:3498   */\n      dup3\n        /* \"#utility.yul\":3479:3499   */\n      calldataload\n        /* \"#utility.yul\":3469:3499   */\n      swap1\n      pop\n        /* \"#utility.yul\":3522:3540   */\n      0xffffffffffffffff\n        /* \"#utility.yul\":3514:3520   */\n      dup2\n        /* \"#utility.yul\":3511:3541   */\n      gt\n        /* \"#utility.yul\":3508:3625   */\n      iszero\n      tag_134\n      jumpi\n        /* \"#utility.yul\":3544:3623   */\n      tag_135\n      tag_74\n      jump\t// in\n    tag_135:\n        /* \"#utility.yul\":3508:3625   */\n    tag_134:\n        /* \"#utility.yul\":3658:3662   */\n      0x20\n        /* \"#utility.yul\":3650:3656   */\n      dup4\n        /* \"#utility.yul\":3646:3663   */\n      add\n        /* \"#utility.yul\":3634:3663   */\n      swap2\n      pop\n        /* \"#utility.yul\":3712:3715   */\n      dup4\n        /* \"#utility.yul\":3704:3708   */\n      0x01\n        /* \"#utility.yul\":3696:3702   */\n      dup3\n        /* \"#utility.yul\":3692:3709   */\n      mul\n        /* \"#utility.yul\":3682:3690   */\n      dup4\n        /* \"#utility.yul\":3678:3710   */\n      add\n        /* \"#utility.yul\":3675:3716   */\n      gt\n        /* \"#utility.yul\":3672:3800   */\n      iszero\n      tag_136\n      jumpi\n        /* \"#utility.yul\":3719:3798   */\n      tag_137\n      tag_75\n      jump\t// in\n    tag_137:\n        /* \"#utility.yul\":3672:3800   */\n    tag_136:\n        /* \"#utility.yul\":3254:3806   */\n      swap3\n      pop\n      swap3\n      swap1\n      pop\n      jump\t// out\n        /* \"#utility.yul\":3812:5295   */\n    tag_12:\n        /* \"#utility.yul\":3953:3959   */\n      0x00\n        /* \"#utility.yul\":3961:3967   */\n      dup1\n        /* \"#utility.yul\":3969:3975   */\n      0x00\n        /* \"#utility.yul\":3977:3983   */\n      dup1\n        /* \"#utility.yul\":3985:3991   */\n      0x00\n        /* \"#utility.yul\":3993:3999   */\n      dup1\n        /* \"#utility.yul\":4001:4007   */\n      0x00\n        /* \"#utility.yul\":4009:4015   */\n      dup1\n        /* \"#utility.yul\":4058:4061   */\n      0xc0\n        /* \"#utility.yul\":4046:4055   */\n      dup10\n        /* \"#utility.yul\":4037:4044   */\n      dup12\n        /* \"#utility.yul\":4033:4056   */\n      sub\n        /* \"#utility.yul\":4029:4062   */\n      slt\n        /* \"#utility.yul\":4026:4146   */\n      iszero\n      tag_139\n      jumpi\n        /* \"#utility.yul\":4065:4144   */\n      tag_140\n      tag_60\n      jump\t// in\n    tag_140:\n        /* \"#utility.yul\":4026:4146   */\n    tag_139:\n        /* \"#utility.yul\":4185:4186   */\n      0x00\n        /* \"#utility.yul\":4210:4262   */\n      tag_141\n        /* \"#utility.yul\":4254:4261   */\n      dup12\n        /* \"#utility.yul\":4245:4251   */\n      dup3\n        /* \"#utility.yul\":4234:4243   */\n      dup13\n        /* \"#utility.yul\":4230:4252   */\n      add\n        /* \"#utility.yul\":4210:4262   */\n      tag_64\n      jump\t// in\n    tag_141:\n        /* \"#utility.yul\":4200:4262   */\n      swap9\n      pop\n        /* \"#utility.yul\":4156:4272   */\n      pop\n        /* \"#utility.yul\":4311:4313   */\n      0x20\n        /* \"#utility.yul\":4337:4390   */\n      tag_142\n        /* \"#utility.yul\":4382:4389   */\n      dup12\n        /* \"#utility.yul\":4373:4379   */\n      dup3\n        /* \"#utility.yul\":4362:4371   */\n      dup13\n        /* \"#utility.yul\":4358:4380   */\n      add\n        /* \"#utility.yul\":4337:4390   */\n      tag_66\n      jump\t// in\n    tag_142:\n        /* \"#utility.yul\":4327:4390   */\n      swap8\n      pop\n        /* \"#utility.yul\":4282:4400   */\n      pop\n        /* \"#utility.yul\":4439:4441   */\n      0x40\n        /* \"#utility.yul\":4465:4518   */\n      tag_143\n        /* \"#utility.yul\":4510:4517   */\n      dup12\n        /* \"#utility.yul\":4501:4507   */\n      dup3\n        /* \"#utility.yul\":4490:4499   */\n      dup13\n        /* \"#utility.yul\":4486:4508   */\n      add\n        /* \"#utility.yul\":4465:4518   */\n      tag_69\n      jump\t// in\n    tag_143:\n        /* \"#utility.yul\":4455:4518   */\n      swap7\n      pop\n        /* \"#utility.yul\":4410:4528   */\n      pop\n        /* \"#utility.yul\":4567:4569   */\n      0x60\n        /* \"#utility.yul\":4593:4646   */\n      tag_144\n        /* \"#utility.yul\":4638:4645   */\n      dup12\n        /* \"#utility.yul\":4629:4635   */\n      dup3\n        /* \"#utility.yul\":4618:4627   */\n      dup13\n        /* \"#utility.yul\":4614:4636   */\n      add\n        /* \"#utility.yul\":4593:4646   */\n      tag_72\n      jump\t// in\n    tag_144:\n        /* \"#utility.yul\":4583:4646   */\n      swap6\n      pop\n        /* \"#utility.yul\":4538:4656   */\n      pop\n        /* \"#utility.yul\":4723:4726   */\n      0x80\n        /* \"#utility.yul\":4712:4721   */\n      dup10\n        /* \"#utility.yul\":4708:4727   */\n      add\n        /* \"#utility.yul\":4695:4728   */\n      calldataload\n        /* \"#utility.yul\":4755:4773   */\n      0xffffffffffffffff\n        /* \"#utility.yul\":4747:4753   */\n      dup2\n        /* \"#utility.yul\":4744:4774   */\n      gt\n        /* \"#utility.yul\":4741:4858   */\n      iszero\n      tag_145\n      jumpi\n        /* \"#utility.yul\":4777:4856   */\n      tag_146\n      tag_61\n      jump\t// in\n    tag_146:\n        /* \"#utility.yul\":4741:4858   */\n    tag_145:\n        /* \"#utility.yul\":4890:4970   */\n      tag_147\n        /* \"#utility.yul\":4962:4969   */\n      dup12\n        /* \"#utility.yul\":4953:4959   */\n      dup3\n        /* \"#utility.yul\":4942:4951   */\n      dup13\n        /* \"#utility.yul\":4938:4960   */\n      add\n        /* \"#utility.yul\":4890:4970   */\n      tag_76\n      jump\t// in\n    tag_147:\n        /* \"#utility.yul\":4872:4970   */\n      swap5\n      pop\n      swap5\n      pop\n        /* \"#utility.yul\":4666:4980   */\n      pop\n        /* \"#utility.yul\":5047:5050   */\n      0xa0\n        /* \"#utility.yul\":5036:5045   */\n      dup10\n        /* \"#utility.yul\":5032:5051   */\n      add\n        /* \"#utility.yul\":5019:5052   */\n      calldataload\n        /* \"#utility.yul\":5079:5097   */\n      0xffffffffffffffff\n        /* \"#utility.yul\":5071:5077   */\n      dup2\n        /* \"#utility.yul\":5068:5098   */\n      gt\n        /* \"#utility.yul\":5065:5182   */\n      iszero\n      tag_148\n      jumpi\n        /* \"#utility.yul\":5101:5180   */\n      tag_149\n      tag_61\n      jump\t// in\n    tag_149:\n        /* \"#utility.yul\":5065:5182   */\n    tag_148:\n        /* \"#utility.yul\":5214:5278   */\n      tag_150\n        /* \"#utility.yul\":5270:5277   */\n      dup12\n        /* \"#utility.yul\":5261:5267   */\n      dup3\n        /* \"#utility.yul\":5250:5259   */\n      dup13\n        /* \"#utility.yul\":5246:5268   */\n      add\n        /* \"#utility.yul\":5214:5278   */\n      tag_77\n      jump\t// in\n    tag_150:\n        /* \"#utility.yul\":5196:5278   */\n      swap3\n      pop\n      swap3\n      pop\n        /* \"#utility.yul\":4990:5288   */\n      pop\n        /* \"#utility.yul\":3812:5295   */\n      swap3\n      swap6\n      swap9\n      pop\n      swap3\n      swap6\n      swap9\n      swap1\n      swap4\n      swap7\n      pop\n      jump\t// out\n        /* \"#utility.yul\":5301:5470   */\n    tag_78:\n        /* \"#utility.yul\":5385:5396   */\n      0x00\n        /* \"#utility.yul\":5419:5425   */\n      dup3\n        /* \"#utility.yul\":5414:5417   */\n      dup3\n        /* \"#utility.yul\":5407:5426   */\n      mstore\n        /* \"#utility.yul\":5459:5463   */\n      0x20\n        /* \"#utility.yul\":5454:5457   */\n      dup3\n        /* \"#utility.yul\":5450:5464   */\n      add\n        /* \"#utility.yul\":5435:5464   */\n      swap1\n      pop\n        /* \"#utility.yul\":5301:5470   */\n      swap3\n      swap2\n      pop\n      pop\n      jump\t// out\n        /* \"#utility.yul\":5476:5656   */\n    tag_79:\n        /* \"#utility.yul\":5616:5648   */\n      0x536f7572636520636861696e20494420646f6573206e6f74206d617463680000\n        /* \"#utility.yul\":5612:5613   */\n      0x00\n        /* \"#utility.yul\":5604:5610   */\n      dup3\n        /* \"#utility.yul\":5600:5614   */\n      add\n        /* \"#utility.yul\":5593:5649   */\n      mstore\n        /* \"#utility.yul\":5476:5656   */\n      pop\n      jump\t// out\n        /* \"#utility.yul\":5662:6028   */\n    tag_80:\n        /* \"#utility.yul\":5804:5807   */\n      0x00\n        /* \"#utility.yul\":5825:5892   */\n      tag_154\n        /* \"#utility.yul\":5889:5891   */\n      0x1e\n        /* \"#utility.yul\":5884:5887   */\n      dup4\n        /* \"#utility.yul\":5825:5892   */\n      tag_78\n      jump\t// in\n    tag_154:\n        /* \"#utility.yul\":5818:5892   */\n      swap2\n      pop\n        /* \"#utility.yul\":5901:5994   */\n      tag_155\n        /* \"#utility.yul\":5990:5993   */\n      dup3\n        /* \"#utility.yul\":5901:5994   */\n      tag_79\n      jump\t// in\n    tag_155:\n        /* \"#utility.yul\":6019:6021   */\n      0x20\n        /* \"#utility.yul\":6014:6017   */\n      dup3\n        /* \"#utility.yul\":6010:6022   */\n      add\n        /* \"#utility.yul\":6003:6022   */\n      swap1\n      pop\n        /* \"#utility.yul\":5662:6028   */\n      swap2\n      swap1\n      pop\n      jump\t// out\n        /* \"#utility.yul\":6034:6453   */\n    tag_32:\n        /* \"#utility.yul\":6200:6204   */\n      0x00\n        /* \"#utility.yul\":6238:6240   */\n      0x20\n        /* \"#utility.yul\":6227:6236   */\n      dup3\n        /* \"#utility.yul\":6223:6241   */\n      add\n        /* \"#utility.yul\":6215:6241   */\n      swap1\n      pop\n        /* \"#utility.yul\":6287:6296   */\n      dup2\n        /* \"#utility.yul\":6281:6285   */\n      dup2\n        /* \"#utility.yul\":6277:6297   */\n      sub\n        /* \"#utility.yul\":6273:6274   */\n      0x00\n        /* \"#utility.yul\":6262:6271   */\n      dup4\n        /* \"#utility.yul\":6258:6275   */\n      add\n        /* \"#utility.yul\":6251:6298   */\n      mstore\n        /* \"#utility.yul\":6315:6446   */\n      tag_157\n        /* \"#utility.yul\":6441:6445   */\n      dup2\n        /* \"#utility.yul\":6315:6446   */\n      tag_80\n      jump\t// in\n    tag_157:\n        /* \"#utility.yul\":6307:6446   */\n      swap1\n      pop\n        /* \"#utility.yul\":6034:6453   */\n      swap2\n      swap1\n      pop\n      jump\t// out\n        /* \"#utility.yul\":6459:6629   */\n    tag_81:\n        /* \"#utility.yul\":6599:6621   */\n      0x496e76616c696420717565727920736368656d61000000000000000000000000\n        /* \"#utility.yul\":6595:6596   */\n      0x00\n        /* \"#utility.yul\":6587:6593   */\n      dup3\n        /* \"#utility.yul\":6583:6597   */\n      add\n        /* \"#utility.yul\":6576:6622   */\n      mstore\n        /* \"#utility.yul\":6459:6629   */\n      pop\n      jump\t// out\n        /* \"#utility.yul\":6635:7001   */\n    tag_82:\n        /* \"#utility.yul\":6777:6780   */\n      0x00\n        /* \"#utility.yul\":6798:6865   */\n      tag_160\n        /* \"#utility.yul\":6862:6864   */\n      0x14\n        /* \"#utility.yul\":6857:6860   */\n      dup4\n        /* \"#utility.yul\":6798:6865   */\n      tag_78\n      jump\t// in\n    tag_160:\n        /* \"#utility.yul\":6791:6865   */\n      swap2\n      pop\n        /* \"#utility.yul\":6874:6967   */\n      tag_161\n        /* \"#utility.yul\":6963:6966   */\n      dup3\n        /* \"#utility.yul\":6874:6967   */\n      tag_81\n      jump\t// in\n    tag_161:\n        /* \"#utility.yul\":6992:6994   */\n      0x20\n        /* \"#utility.yul\":6987:6990   */\n      dup3\n        /* \"#utility.yul\":6983:6995   */\n      add\n        /* \"#utility.yul\":6976:6995   */\n      swap1\n      pop\n        /* \"#utility.yul\":6635:7001   */\n      swap2\n      swap1\n      pop\n      jump\t// out\n        /* \"#utility.yul\":7007:7426   */\n    tag_35:\n        /* \"#utility.yul\":7173:7177   */\n      0x00\n        /* \"#utility.yul\":7211:7213   */\n      0x20\n        /* \"#utility.yul\":7200:7209   */\n      dup3\n        /* \"#utility.yul\":7196:7214   */\n      add\n        /* \"#utility.yul\":7188:7214   */\n      swap1\n      pop\n        /* \"#utility.yul\":7260:7269   */\n      dup2\n        /* \"#utility.yul\":7254:7258   */\n      dup2\n        /* \"#utility.yul\":7250:7270   */\n      sub\n        /* \"#utility.yul\":7246:7247   */\n      0x00\n        /* \"#utility.yul\":7235:7244   */\n      dup4\n        /* \"#utility.yul\":7231:7248   */\n      add\n        /* \"#utility.yul\":7224:7271   */\n      mstore\n        /* \"#utility.yul\":7288:7419   */\n      tag_163\n        /* \"#utility.yul\":7414:7418   */\n      dup2\n        /* \"#utility.yul\":7288:7419   */\n      tag_82\n      jump\t// in\n    tag_163:\n        /* \"#utility.yul\":7280:7419   */\n      swap1\n      pop\n        /* \"#utility.yul\":7007:7426   */\n      swap2\n      swap1\n      pop\n      jump\t// out\n        /* \"#utility.yul\":7432:7612   */\n    tag_39:\n        /* \"#utility.yul\":7480:7557   */\n      0x4e487b7100000000000000000000000000000000000000000000000000000000\n        /* \"#utility.yul\":7477:7478   */\n      0x00\n        /* \"#utility.yul\":7470:7558   */\n      mstore\n        /* \"#utility.yul\":7577:7581   */\n      0x32\n        /* \"#utility.yul\":7574:7575   */\n      0x04\n        /* \"#utility.yul\":7567:7582   */\n      mstore\n        /* \"#utility.yul\":7601:7605   */\n      0x24\n        /* \"#utility.yul\":7598:7599   */\n      0x00\n        /* \"#utility.yul\":7591:7606   */\n      revert\n        /* \"#utility.yul\":7618:7736   */\n    tag_83:\n        /* \"#utility.yul\":7705:7729   */\n      tag_166\n        /* \"#utility.yul\":7723:7728   */\n      dup2\n        /* \"#utility.yul\":7705:7729   */\n      tag_70\n      jump\t// in\n    tag_166:\n        /* \"#utility.yul\":7700:7703   */\n      dup3\n        /* \"#utility.yul\":7693:7730   */\n      mstore\n        /* \"#utility.yul\":7618:7736   */\n      pop\n      pop\n      jump\t// out\n        /* \"#utility.yul\":7742:8074   */\n    tag_49:\n        /* \"#utility.yul\":7863:7867   */\n      0x00\n        /* \"#utility.yul\":7901:7903   */\n      0x40\n        /* \"#utility.yul\":7890:7899   */\n      dup3\n        /* \"#utility.yul\":7886:7904   */\n      add\n        /* \"#utility.yul\":7878:7904   */\n      swap1\n      pop\n        /* \"#utility.yul\":7914:7985   */\n      tag_168\n        /* \"#utility.yul\":7982:7983   */\n      0x00\n        /* \"#utility.yul\":7971:7980   */\n      dup4\n        /* \"#utility.yul\":7967:7984   */\n      add\n        /* \"#utility.yul\":7958:7964   */\n      dup6\n        /* \"#utility.yul\":7914:7985   */\n      tag_58\n      jump\t// in\n    tag_168:\n        /* \"#utility.yul\":7995:8067   */\n      tag_169\n        /* \"#utility.yul\":8063:8065   */\n      0x20\n        /* \"#utility.yul\":8052:8061   */\n      dup4\n        /* \"#utility.yul\":8048:8066   */\n      add\n        /* \"#utility.yul\":8039:8045   */\n      dup5\n        /* \"#utility.yul\":7995:8067   */\n      tag_83\n      jump\t// in\n    tag_169:\n        /* \"#utility.yul\":7742:8074   */\n      swap4\n      swap3\n      pop\n      pop\n      pop\n      jump\t// out\n        /* \"#utility.yul\":8080:8170   */\n    tag_84:\n        /* \"#utility.yul\":8114:8121   */\n      0x00\n        /* \"#utility.yul\":8157:8162   */\n      dup2\n        /* \"#utility.yul\":8150:8163   */\n      iszero\n        /* \"#utility.yul\":8143:8164   */\n      iszero\n        /* \"#utility.yul\":8132:8164   */\n      swap1\n      pop\n        /* \"#utility.yul\":8080:8170   */\n      swap2\n      swap1\n      pop\n      jump\t// out\n        /* \"#utility.yul\":8176:8292   */\n    tag_85:\n        /* \"#utility.yul\":8246:8267   */\n      tag_172\n        /* \"#utility.yul\":8261:8266   */\n      dup2\n        /* \"#utility.yul\":8246:8267   */\n      tag_84\n      jump\t// in\n    tag_172:\n        /* \"#utility.yul\":8239:8244   */\n      dup2\n        /* \"#utility.yul\":8236:8268   */\n      eq\n        /* \"#utility.yul\":8226:8286   */\n      tag_173\n      jumpi\n        /* \"#utility.yul\":8282:8283   */\n      0x00\n        /* \"#utility.yul\":8279:8280   */\n      dup1\n        /* \"#utility.yul\":8272:8284   */\n      revert\n        /* \"#utility.yul\":8226:8286   */\n    tag_173:\n        /* \"#utility.yul\":8176:8292   */\n      pop\n      jump\t// out\n        /* \"#utility.yul\":8298:8435   */\n    tag_86:\n        /* \"#utility.yul\":8352:8357   */\n      0x00\n        /* \"#utility.yul\":8383:8389   */\n      dup2\n        /* \"#utility.yul\":8377:8390   */\n      mload\n        /* \"#utility.yul\":8368:8390   */\n      swap1\n      pop\n        /* \"#utility.yul\":8399:8429   */\n      tag_175\n        /* \"#utility.yul\":8423:8428   */\n      dup2\n        /* \"#utility.yul\":8399:8429   */\n      tag_85\n      jump\t// in\n    tag_175:\n        /* \"#utility.yul\":8298:8435   */\n      swap3\n      swap2\n      pop\n      pop\n      jump\t// out\n        /* \"#utility.yul\":8441:8786   */\n    tag_53:\n        /* \"#utility.yul\":8508:8514   */\n      0x00\n        /* \"#utility.yul\":8557:8559   */\n      0x20\n        /* \"#utility.yul\":8545:8554   */\n      dup3\n        /* \"#utility.yul\":8536:8543   */\n      dup5\n        /* \"#utility.yul\":8532:8555   */\n      sub\n        /* \"#utility.yul\":8528:8560   */\n      slt\n        /* \"#utility.yul\":8525:8644   */\n      iszero\n      tag_177\n      jumpi\n        /* \"#utility.yul\":8563:8642   */\n      tag_178\n      tag_60\n      jump\t// in\n    tag_178:\n        /* \"#utility.yul\":8525:8644   */\n    tag_177:\n        /* \"#utility.yul\":8683:8684   */\n      0x00\n        /* \"#utility.yul\":8708:8769   */\n      tag_179\n        /* \"#utility.yul\":8761:8768   */\n      dup5\n        /* \"#utility.yul\":8752:8758   */\n      dup3\n        /* \"#utility.yul\":8741:8750   */\n      dup6\n        /* \"#utility.yul\":8737:8759   */\n      add\n        /* \"#utility.yul\":8708:8769   */\n      tag_86\n      jump\t// in\n    tag_179:\n        /* \"#utility.yul\":8698:8769   */\n      swap2\n      pop\n        /* \"#utility.yul\":8654:8779   */\n      pop\n        /* \"#utility.yul\":8441:8786   */\n      swap3\n      swap2\n      pop\n      pop\n      jump\t// out\n        /* \"#utility.yul\":8792:9456   */\n    tag_55:\n        /* \"#utility.yul\":8997:9001   */\n      0x00\n        /* \"#utility.yul\":9035:9038   */\n      0xa0\n        /* \"#utility.yul\":9024:9033   */\n      dup3\n        /* \"#utility.yul\":9020:9039   */\n      add\n        /* \"#utility.yul\":9012:9039   */\n      swap1\n      pop\n        /* \"#utility.yul\":9049:9120   */\n      tag_181\n        /* \"#utility.yul\":9117:9118   */\n      0x00\n        /* \"#utility.yul\":9106:9115   */\n      dup4\n        /* \"#utility.yul\":9102:9119   */\n      add\n        /* \"#utility.yul\":9093:9099   */\n      dup9\n        /* \"#utility.yul\":9049:9120   */\n      tag_83\n      jump\t// in\n    tag_181:\n        /* \"#utility.yul\":9130:9202   */\n      tag_182\n        /* \"#utility.yul\":9198:9200   */\n      0x20\n        /* \"#utility.yul\":9187:9196   */\n      dup4\n        /* \"#utility.yul\":9183:9201   */\n      add\n        /* \"#utility.yul\":9174:9180   */\n      dup8\n        /* \"#utility.yul\":9130:9202   */\n      tag_58\n      jump\t// in\n    tag_182:\n        /* \"#utility.yul\":9212:9284   */\n      tag_183\n        /* \"#utility.yul\":9280:9282   */\n      0x40\n        /* \"#utility.yul\":9269:9278   */\n      dup4\n        /* \"#utility.yul\":9265:9283   */\n      add\n        /* \"#utility.yul\":9256:9262   */\n      dup7\n        /* \"#utility.yul\":9212:9284   */\n      tag_58\n      jump\t// in\n    tag_183:\n        /* \"#utility.yul\":9294:9366   */\n      tag_184\n        /* \"#utility.yul\":9362:9364   */\n      0x60\n        /* \"#utility.yul\":9351:9360   */\n      dup4\n        /* \"#utility.yul\":9347:9365   */\n      add\n        /* \"#utility.yul\":9338:9344   */\n      dup6\n        /* \"#utility.yul\":9294:9366   */\n      tag_58\n      jump\t// in\n    tag_184:\n        /* \"#utility.yul\":9376:9449   */\n      tag_185\n        /* \"#utility.yul\":9444:9447   */\n      0x80\n        /* \"#utility.yul\":9433:9442   */\n      dup4\n        /* \"#utility.yul\":9429:9448   */\n      add\n        /* \"#utility.yul\":9420:9426   */\n      dup5\n        /* \"#utility.yul\":9376:9449   */\n      tag_83\n      jump\t// in\n    tag_185:\n        /* \"#utility.yul\":8792:9456   */\n      swap7\n      swap6\n      pop\n      pop\n      pop\n      pop\n      pop\n      pop\n      jump\t// out\n\n    auxdata: 0xa2646970667358221220423d613181c8f0a88687514a6ca7ec11a9506cac9034effa2ec1ce06726197d464736f6c63430008140033\n}\n",
				"bytecode": {
					"linkReferences": {},
					"object": "61010060405234801562000011575f80fd5b5060405162000d2638038062000d26833981810160405281019062000037919062000260565b845f73ffffffffffffffffffffffffffffffffffffffff168173ffffffffffffffffffffffffffffffffffffffff16036200009e576040517fd86f565500000000000000000000000000000000000000000000000000000000815260040160405180910390fd5b8073ffffffffffffffffffffffffffffffffffffffff1660808173ffffffffffffffffffffffffffffffffffffffff1681525050508260a081815250508367ffffffffffffffff1660c08167ffffffffffffffff1681525050815f806101000a81548173ffffffffffffffffffffffffffffffffffffffff021916908373ffffffffffffffffffffffffffffffffffffffff1602179055508060e081815250505050505050620002e4565b5f80fd5b5f73ffffffffffffffffffffffffffffffffffffffff82169050919050565b5f62000178826200014d565b9050919050565b6200018a816200016c565b811462000195575f80fd5b50565b5f81519050620001a8816200017f565b92915050565b5f67ffffffffffffffff82169050919050565b620001cc81620001ae565b8114620001d7575f80fd5b50565b5f81519050620001ea81620001c1565b92915050565b5f819050919050565b6200020481620001f0565b81146200020f575f80fd5b50565b5f815190506200022281620001f9565b92915050565b5f819050919050565b6200023c8162000228565b811462000247575f80fd5b50565b5f815190506200025a8162000231565b92915050565b5f805f805f60a086880312156200027c576200027b62000149565b5b5f6200028b8882890162000198565b95505060206200029e88828901620001da565b9450506040620002b18882890162000212565b9350506060620002c48882890162000198565b9250506080620002d7888289016200024a565b9150509295509295909350565b60805160a05160c05160e051610a02620003245f395f61046001525f6102a401525f61031a01525f8181609b0152818160bf01526101b20152610a025ff3fe608060405234801561000f575f80fd5b506004361061003f575f3560e01c80632a75d3be146100435780638193399c14610061578063dc5cd53c1461007d575b5f80fd5b61004b610099565b604051610058919061056a565b60405180910390f35b61007b6004803603810190610076919061070e565b6100bd565b005b6100976004803603810190610092919061070e565b6101b0565b005b7f000000000000000000000000000000000000000000000000000000000000000081565b7f000000000000000000000000000000000000000000000000000000000000000073ffffffffffffffffffffffffffffffffffffffff163373ffffffffffffffffffffffffffffffffffffffff1614610142576040517f25ce393e00000000000000000000000000000000000000000000000000000000815260040160405180910390fd5b84868967ffffffffffffffff167fd6d9923f6afa6ae6afc97c99da22b8ccadc9beafe897857b2434da0a402da98c8a60405161017e919061056a565b60405180910390a461019660018989898987876102a2565b6101a68888888888888888610383565b5050505050505050565b7f000000000000000000000000000000000000000000000000000000000000000073ffffffffffffffffffffffffffffffffffffffff163373ffffffffffffffffffffffffffffffffffffffff1614610235576040517f25ce393e00000000000000000000000000000000000000000000000000000000815260040160405180910390fd5b84868967ffffffffffffffff167fc6d3309bf887e48755c9a455e332b73641b6bf2fd018e3b608bf21676c4c0af58a604051610271919061056a565b60405180910390a46102885f8989898987876102a2565b6102988888888888888888610383565b5050505050505050565b7f000000000000000000000000000000000000000000000000000000000000000067ffffffffffffffff168667ffffffffffffffff1614610318576040517f08c379a000000000000000000000000000000000000000000000000000000000815260040161030f90610832565b60405180910390fd5b7f0000000000000000000000000000000000000000000000000000000000000000841461037a576040517f08c379a00000000000000000000000000000000000000000000000000000000081526004016103719061089a565b60405180910390fd5b50505050505050565b5f84845f818110610397576103966108b8565b5b905060200201355f1c90505f858560018181106103b7576103b66108b8565b5b905060200201355f1c90505f868660028181106103d7576103d66108b8565b5b905060200201355f1c90505f878760038181106103f7576103f66108b8565b5b905060200201355f1c90505f88886004818110610417576104166108b8565b5b905060200201355f1c90505f8054906101000a900473ffffffffffffffffffffffffffffffffffffffff1673ffffffffffffffffffffffffffffffffffffffff1663a9059cbb857f00000000000000000000000000000000000000000000000000000000000000006040518363ffffffff1660e01b815260040161049c9291906108f4565b6020604051808303815f875af11580156104b8573d5f803e3d5ffd5b505050506040513d601f19601f820116820180604052508101906104dc9190610950565b507f1b9cfc021e7abd6a012213816a673dfdbf689c83ac80ca1300377bd02eb1888d858585858560405161051495949392919061097b565b60405180910390a150505050505050505050505050565b5f73ffffffffffffffffffffffffffffffffffffffff82169050919050565b5f6105548261052b565b9050919050565b6105648161054a565b82525050565b5f60208201905061057d5f83018461055b565b92915050565b5f80fd5b5f80fd5b5f67ffffffffffffffff82169050919050565b6105a78161058b565b81146105b1575f80fd5b50565b5f813590506105c28161059e565b92915050565b6105d18161054a565b81146105db575f80fd5b50565b5f813590506105ec816105c8565b92915050565b5f819050919050565b610604816105f2565b811461060e575f80fd5b50565b5f8135905061061f816105fb565b92915050565b5f819050919050565b61063781610625565b8114610641575f80fd5b50565b5f813590506106528161062e565b92915050565b5f80fd5b5f80fd5b5f80fd5b5f8083601f84011261067957610678610658565b5b8235905067ffffffffffffffff8111156106965761069561065c565b5b6020830191508360208202830111156106b2576106b1610660565b5b9250929050565b5f8083601f8401126106ce576106cd610658565b5b8235905067ffffffffffffffff8111156106eb576106ea61065c565b5b60208301915083600182028301111561070757610706610660565b5b9250929050565b5f805f805f805f8060c0898b03121561072a57610729610583565b5b5f6107378b828c016105b4565b98505060206107488b828c016105de565b97505060406107598b828c01610611565b965050606061076a8b828c01610644565b955050608089013567ffffffffffffffff81111561078b5761078a610587565b5b6107978b828c01610664565b945094505060a089013567ffffffffffffffff8111156107ba576107b9610587565b5b6107c68b828c016106b9565b92509250509295985092959890939650565b5f82825260208201905092915050565b7f536f7572636520636861696e20494420646f6573206e6f74206d6174636800005f82015250565b5f61081c601e836107d8565b9150610827826107e8565b602082019050919050565b5f6020820190508181035f83015261084981610810565b9050919050565b7f496e76616c696420717565727920736368656d610000000000000000000000005f82015250565b5f6108846014836107d8565b915061088f82610850565b602082019050919050565b5f6020820190508181035f8301526108b181610878565b9050919050565b7f4e487b71000000000000000000000000000000000000000000000000000000005f52603260045260245ffd5b6108ee81610625565b82525050565b5f6040820190506109075f83018561055b565b61091460208301846108e5565b9392505050565b5f8115159050919050565b61092f8161091b565b8114610939575f80fd5b50565b5f8151905061094a81610926565b92915050565b5f6020828403121561096557610964610583565b5b5f6109728482850161093c565b91505092915050565b5f60a08201905061098e5f8301886108e5565b61099b602083018761055b565b6109a8604083018661055b565b6109b5606083018561055b565b6109c260808301846108e5565b969550505050505056fea2646970667358221220423d613181c8f0a88687514a6ca7ec11a9506cac9034effa2ec1ce06726197d464736f6c63430008140033",
					"opcodes": "PUSH2 0x100 PUSH1 0x40 MSTORE CALLVALUE DUP1 ISZERO PUSH3 0x11 JUMPI PUSH0 DUP1 REVERT JUMPDEST POP PUSH1 0x40 MLOAD PUSH3 0xD26 CODESIZE SUB DUP1 PUSH3 0xD26 DUP4 CODECOPY DUP2 DUP2 ADD PUSH1 0x40 MSTORE DUP2 ADD SWAP1 PUSH3 0x37 SWAP2 SWAP1 PUSH3 0x260 JUMP JUMPDEST DUP5 PUSH0 PUSH20 0xFFFFFFFFFFFFFFFFFFFFFFFFFFFFFFFFFFFFFFFF AND DUP2 PUSH20 0xFFFFFFFFFFFFFFFFFFFFFFFFFFFFFFFFFFFFFFFF AND SUB PUSH3 0x9E JUMPI PUSH1 0x40 MLOAD PUSH32 0xD86F565500000000000000000000000000000000000000000000000000000000 DUP2 MSTORE PUSH1 0x4 ADD PUSH1 0x40 MLOAD DUP1 SWAP2 SUB SWAP1 REVERT JUMPDEST DUP1 PUSH20 0xFFFFFFFFFFFFFFFFFFFFFFFFFFFFFFFFFFFFFFFF AND PUSH1 0x80 DUP2 PUSH20 0xFFFFFFFFFFFFFFFFFFFFFFFFFFFFFFFFFFFFFFFF AND DUP2 MSTORE POP POP POP DUP3 PUSH1 0xA0 DUP2 DUP2 MSTORE POP POP DUP4 PUSH8 0xFFFFFFFFFFFFFFFF AND PUSH1 0xC0 DUP2 PUSH8 0xFFFFFFFFFFFFFFFF AND DUP2 MSTORE POP POP DUP2 PUSH0 DUP1 PUSH2 0x100 EXP DUP2 SLOAD DUP2 PUSH20 0xFFFFFFFFFFFFFFFFFFFFFFFFFFFFFFFFFFFFFFFF MUL NOT AND SWAP1 DUP4 PUSH20 0xFFFFFFFFFFFFFFFFFFFFFFFFFFFFFFFFFFFFFFFF AND MUL OR SWAP1 SSTORE POP DUP1 PUSH1 0xE0 DUP2 DUP2 MSTORE POP POP POP POP POP POP POP PUSH3 0x2E4 JUMP JUMPDEST PUSH0 DUP1 REVERT JUMPDEST PUSH0 PUSH20 0xFFFFFFFFFFFFFFFFFFFFFFFFFFFFFFFFFFFFFFFF DUP3 AND SWAP1 POP SWAP2 SWAP1 POP JUMP JUMPDEST PUSH0 PUSH3 0x178 DUP3 PUSH3 0x14D JUMP JUMPDEST SWAP1 POP SWAP2 SWAP1 POP JUMP JUMPDEST PUSH3 0x18A DUP2 PUSH3 0x16C JUMP JUMPDEST DUP2 EQ PUSH3 0x195 JUMPI PUSH0 DUP1 REVERT JUMPDEST POP JUMP JUMPDEST PUSH0 DUP2 MLOAD SWAP1 POP PUSH3 0x1A8 DUP2 PUSH3 0x17F JUMP JUMPDEST SWAP3 SWAP2 POP POP JUMP JUMPDEST PUSH0 PUSH8 0xFFFFFFFFFFFFFFFF DUP3 AND SWAP1 POP SWAP2 SWAP1 POP JUMP JUMPDEST PUSH3 0x1CC DUP2 PUSH3 0x1AE JUMP JUMPDEST DUP2 EQ PUSH3 0x1D7 JUMPI PUSH0 DUP1 REVERT JUMPDEST POP JUMP JUMPDEST PUSH0 DUP2 MLOAD SWAP1 POP PUSH3 0x1EA DUP2 PUSH3 0x1C1 JUMP JUMPDEST SWAP3 SWAP2 POP POP JUMP JUMPDEST PUSH0 DUP2 SWAP1 POP SWAP2 SWAP1 POP JUMP JUMPDEST PUSH3 0x204 DUP2 PUSH3 0x1F0 JUMP JUMPDEST DUP2 EQ PUSH3 0x20F JUMPI PUSH0 DUP1 REVERT JUMPDEST POP JUMP JUMPDEST PUSH0 DUP2 MLOAD SWAP1 POP PUSH3 0x222 DUP2 PUSH3 0x1F9 JUMP JUMPDEST SWAP3 SWAP2 POP POP JUMP JUMPDEST PUSH0 DUP2 SWAP1 POP SWAP2 SWAP1 POP JUMP JUMPDEST PUSH3 0x23C DUP2 PUSH3 0x228 JUMP JUMPDEST DUP2 EQ PUSH3 0x247 JUMPI PUSH0 DUP1 REVERT JUMPDEST POP JUMP JUMPDEST PUSH0 DUP2 MLOAD SWAP1 POP PUSH3 0x25A DUP2 PUSH3 0x231 JUMP JUMPDEST SWAP3 SWAP2 POP POP JUMP JUMPDEST PUSH0 DUP1 PUSH0 DUP1 PUSH0 PUSH1 0xA0 DUP7 DUP9 SUB SLT ISZERO PUSH3 0x27C JUMPI PUSH3 0x27B PUSH3 0x149 JUMP JUMPDEST JUMPDEST PUSH0 PUSH3 0x28B DUP9 DUP3 DUP10 ADD PUSH3 0x198 JUMP JUMPDEST SWAP6 POP POP PUSH1 0x20 PUSH3 0x29E DUP9 DUP3 DUP10 ADD PUSH3 0x1DA JUMP JUMPDEST SWAP5 POP POP PUSH1 0x40 PUSH3 0x2B1 DUP9 DUP3 DUP10 ADD PUSH3 0x212 JUMP JUMPDEST SWAP4 POP POP PUSH1 0x60 PUSH3 0x2C4 DUP9 DUP3 DUP10 ADD PUSH3 0x198 JUMP JUMPDEST SWAP3 POP POP PUSH1 0x80 PUSH3 0x2D7 DUP9 DUP3 DUP10 ADD PUSH3 0x24A JUMP JUMPDEST SWAP2 POP POP SWAP3 SWAP6 POP SWAP3 SWAP6 SWAP1 SWAP4 POP JUMP JUMPDEST PUSH1 0x80 MLOAD PUSH1 0xA0 MLOAD PUSH1 0xC0 MLOAD PUSH1 0xE0 MLOAD PUSH2 0xA02 PUSH3 0x324 PUSH0 CODECOPY PUSH0 PUSH2 0x460 ADD MSTORE PUSH0 PUSH2 0x2A4 ADD MSTORE PUSH0 PUSH2 0x31A ADD MSTORE PUSH0 DUP2 DUP2 PUSH1 0x9B ADD MSTORE DUP2 DUP2 PUSH1 0xBF ADD MSTORE PUSH2 0x1B2 ADD MSTORE PUSH2 0xA02 PUSH0 RETURN INVALID PUSH1 0x80 PUSH1 0x40 MSTORE CALLVALUE DUP1 ISZERO PUSH2 0xF JUMPI PUSH0 DUP1 REVERT JUMPDEST POP PUSH1 0x4 CALLDATASIZE LT PUSH2 0x3F JUMPI PUSH0 CALLDATALOAD PUSH1 0xE0 SHR DUP1 PUSH4 0x2A75D3BE EQ PUSH2 0x43 JUMPI DUP1 PUSH4 0x8193399C EQ PUSH2 0x61 JUMPI DUP1 PUSH4 0xDC5CD53C EQ PUSH2 0x7D JUMPI JUMPDEST PUSH0 DUP1 REVERT JUMPDEST PUSH2 0x4B PUSH2 0x99 JUMP JUMPDEST PUSH1 0x40 MLOAD PUSH2 0x58 SWAP2 SWAP1 PUSH2 0x56A JUMP JUMPDEST PUSH1 0x40 MLOAD DUP1 SWAP2 SUB SWAP1 RETURN JUMPDEST PUSH2 0x7B PUSH1 0x4 DUP1 CALLDATASIZE SUB DUP2 ADD SWAP1 PUSH2 0x76 SWAP2 SWAP1 PUSH2 0x70E JUMP JUMPDEST PUSH2 0xBD JUMP JUMPDEST STOP JUMPDEST PUSH2 0x97 PUSH1 0x4 DUP1 CALLDATASIZE SUB DUP2 ADD SWAP1 PUSH2 0x92 SWAP2 SWAP1 PUSH2 0x70E JUMP JUMPDEST PUSH2 0x1B0 JUMP JUMPDEST STOP JUMPDEST PUSH32 0x0 DUP2 JUMP JUMPDEST PUSH32 0x0 PUSH20 0xFFFFFFFFFFFFFFFFFFFFFFFFFFFFFFFFFFFFFFFF AND CALLER PUSH20 0xFFFFFFFFFFFFFFFFFFFFFFFFFFFFFFFFFFFFFFFF AND EQ PUSH2 0x142 JUMPI PUSH1 0x40 MLOAD PUSH32 0x25CE393E00000000000000000000000000000000000000000000000000000000 DUP2 MSTORE PUSH1 0x4 ADD PUSH1 0x40 MLOAD DUP1 SWAP2 SUB SWAP1 REVERT JUMPDEST DUP5 DUP7 DUP10 PUSH8 0xFFFFFFFFFFFFFFFF AND PUSH32 0xD6D9923F6AFA6AE6AFC97C99DA22B8CCADC9BEAFE897857B2434DA0A402DA98C DUP11 PUSH1 0x40 MLOAD PUSH2 0x17E SWAP2 SWAP1 PUSH2 0x56A JUMP JUMPDEST PUSH1 0x40 MLOAD DUP1 SWAP2 SUB SWAP1 LOG4 PUSH2 0x196 PUSH1 0x1 DUP10 DUP10 DUP10 DUP10 DUP8 DUP8 PUSH2 0x2A2 JUMP JUMPDEST PUSH2 0x1A6 DUP9 DUP9 DUP9 DUP9 DUP9 DUP9 DUP9 DUP9 PUSH2 0x383 JUMP JUMPDEST POP POP POP POP POP POP POP POP JUMP JUMPDEST PUSH32 0x0 PUSH20 0xFFFFFFFFFFFFFFFFFFFFFFFFFFFFFFFFFFFFFFFF AND CALLER PUSH20 0xFFFFFFFFFFFFFFFFFFFFFFFFFFFFFFFFFFFFFFFF AND EQ PUSH2 0x235 JUMPI PUSH1 0x40 MLOAD PUSH32 0x25CE393E00000000000000000000000000000000000000000000000000000000 DUP2 MSTORE PUSH1 0x4 ADD PUSH1 0x40 MLOAD DUP1 SWAP2 SUB SWAP1 REVERT JUMPDEST DUP5 DUP7 DUP10 PUSH8 0xFFFFFFFFFFFFFFFF AND PUSH32 0xC6D3309BF887E48755C9A455E332B73641B6BF2FD018E3B608BF21676C4C0AF5 DUP11 PUSH1 0x40 MLOAD PUSH2 0x271 SWAP2 SWAP1 PUSH2 0x56A JUMP JUMPDEST PUSH1 0x40 MLOAD DUP1 SWAP2 SUB SWAP1 LOG4 PUSH2 0x288 PUSH0 DUP10 DUP10 DUP10 DUP10 DUP8 DUP8 PUSH2 0x2A2 JUMP JUMPDEST PUSH2 0x298 DUP9 DUP9 DUP9 DUP9 DUP9 DUP9 DUP9 DUP9 PUSH2 0x383 JUMP JUMPDEST POP POP POP POP POP POP POP POP JUMP JUMPDEST PUSH32 0x0 PUSH8 0xFFFFFFFFFFFFFFFF AND DUP7 PUSH8 0xFFFFFFFFFFFFFFFF AND EQ PUSH2 0x318 JUMPI PUSH1 0x40 MLOAD PUSH32 0x8C379A000000000000000000000000000000000000000000000000000000000 DUP2 MSTORE PUSH1 0x4 ADD PUSH2 0x30F SWAP1 PUSH2 0x832 JUMP JUMPDEST PUSH1 0x40 MLOAD DUP1 SWAP2 SUB SWAP1 REVERT JUMPDEST PUSH32 0x0 DUP5 EQ PUSH2 0x37A JUMPI PUSH1 0x40 MLOAD PUSH32 0x8C379A000000000000000000000000000000000000000000000000000000000 DUP2 MSTORE PUSH1 0x4 ADD PUSH2 0x371 SWAP1 PUSH2 0x89A JUMP JUMPDEST PUSH1 0x40 MLOAD DUP1 SWAP2 SUB SWAP1 REVERT JUMPDEST POP POP POP POP POP POP POP JUMP JUMPDEST PUSH0 DUP5 DUP5 PUSH0 DUP2 DUP2 LT PUSH2 0x397 JUMPI PUSH2 0x396 PUSH2 0x8B8 JUMP JUMPDEST JUMPDEST SWAP1 POP PUSH1 0x20 MUL ADD CALLDATALOAD PUSH0 SHR SWAP1 POP PUSH0 DUP6 DUP6 PUSH1 0x1 DUP2 DUP2 LT PUSH2 0x3B7 JUMPI PUSH2 0x3B6 PUSH2 0x8B8 JUMP JUMPDEST JUMPDEST SWAP1 POP PUSH1 0x20 MUL ADD CALLDATALOAD PUSH0 SHR SWAP1 POP PUSH0 DUP7 DUP7 PUSH1 0x2 DUP2 DUP2 LT PUSH2 0x3D7 JUMPI PUSH2 0x3D6 PUSH2 0x8B8 JUMP JUMPDEST JUMPDEST SWAP1 POP PUSH1 0x20 MUL ADD CALLDATALOAD PUSH0 SHR SWAP1 POP PUSH0 DUP8 DUP8 PUSH1 0x3 DUP2 DUP2 LT PUSH2 0x3F7 JUMPI PUSH2 0x3F6 PUSH2 0x8B8 JUMP JUMPDEST JUMPDEST SWAP1 POP PUSH1 0x20 MUL ADD CALLDATALOAD PUSH0 SHR SWAP1 POP PUSH0 DUP9 DUP9 PUSH1 0x4 DUP2 DUP2 LT PUSH2 0x417 JUMPI PUSH2 0x416 PUSH2 0x8B8 JUMP JUMPDEST JUMPDEST SWAP1 POP PUSH1 0x20 MUL ADD CALLDATALOAD PUSH0 SHR SWAP1 POP PUSH0 DUP1 SLOAD SWAP1 PUSH2 0x100 EXP SWAP1 DIV PUSH20 0xFFFFFFFFFFFFFFFFFFFFFFFFFFFFFFFFFFFFFFFF AND PUSH20 0xFFFFFFFFFFFFFFFFFFFFFFFFFFFFFFFFFFFFFFFF AND PUSH4 0xA9059CBB DUP6 PUSH32 0x0 PUSH1 0x40 MLOAD DUP4 PUSH4 0xFFFFFFFF AND PUSH1 0xE0 SHL DUP2 MSTORE PUSH1 0x4 ADD PUSH2 0x49C SWAP3 SWAP2 SWAP1 PUSH2 0x8F4 JUMP JUMPDEST PUSH1 0x20 PUSH1 0x40 MLOAD DUP1 DUP4 SUB DUP2 PUSH0 DUP8 GAS CALL ISZERO DUP1 ISZERO PUSH2 0x4B8 JUMPI RETURNDATASIZE PUSH0 DUP1 RETURNDATACOPY RETURNDATASIZE PUSH0 REVERT JUMPDEST POP POP POP POP PUSH1 0x40 MLOAD RETURNDATASIZE PUSH1 0x1F NOT PUSH1 0x1F DUP3 ADD AND DUP3 ADD DUP1 PUSH1 0x40 MSTORE POP DUP2 ADD SWAP1 PUSH2 0x4DC SWAP2 SWAP1 PUSH2 0x950 JUMP JUMPDEST POP PUSH32 0x1B9CFC021E7ABD6A012213816A673DFDBF689C83AC80CA1300377BD02EB1888D DUP6 DUP6 DUP6 DUP6 DUP6 PUSH1 0x40 MLOAD PUSH2 0x514 SWAP6 SWAP5 SWAP4 SWAP3 SWAP2 SWAP1 PUSH2 0x97B JUMP JUMPDEST PUSH1 0x40 MLOAD DUP1 SWAP2 SUB SWAP1 LOG1 POP POP POP POP POP POP POP POP POP POP POP POP POP JUMP JUMPDEST PUSH0 PUSH20 0xFFFFFFFFFFFFFFFFFFFFFFFFFFFFFFFFFFFFFFFF DUP3 AND SWAP1 POP SWAP2 SWAP1 POP JUMP JUMPDEST PUSH0 PUSH2 0x554 DUP3 PUSH2 0x52B JUMP JUMPDEST SWAP1 POP SWAP2 SWAP1 POP JUMP JUMPDEST PUSH2 0x564 DUP2 PUSH2 0x54A JUMP JUMPDEST DUP3 MSTORE POP POP JUMP JUMPDEST PUSH0 PUSH1 0x20 DUP3 ADD SWAP1 POP PUSH2 0x57D PUSH0 DUP4 ADD DUP5 PUSH2 0x55B JUMP JUMPDEST SWAP3 SWAP2 POP POP JUMP JUMPDEST PUSH0 DUP1 REVERT JUMPDEST PUSH0 DUP1 REVERT JUMPDEST PUSH0 PUSH8 0xFFFFFFFFFFFFFFFF DUP3 AND SWAP1 POP SWAP2 SWAP1 POP JUMP JUMPDEST PUSH2 0x5A7 DUP2 PUSH2 0x58B JUMP JUMPDEST DUP2 EQ PUSH2 0x5B1 JUMPI PUSH0 DUP1 REVERT JUMPDEST POP JUMP JUMPDEST PUSH0 DUP2 CALLDATALOAD SWAP1 POP PUSH2 0x5C2 DUP2 PUSH2 0x59E JUMP JUMPDEST SWAP3 SWAP2 POP POP JUMP JUMPDEST PUSH2 0x5D1 DUP2 PUSH2 0x54A JUMP JUMPDEST DUP2 EQ PUSH2 0x5DB JUMPI PUSH0 DUP1 REVERT JUMPDEST POP JUMP JUMPDEST PUSH0 DUP2 CALLDATALOAD SWAP1 POP PUSH2 0x5EC DUP2 PUSH2 0x5C8 JUMP JUMPDEST SWAP3 SWAP2 POP POP JUMP JUMPDEST PUSH0 DUP2 SWAP1 POP SWAP2 SWAP1 POP JUMP JUMPDEST PUSH2 0x604 DUP2 PUSH2 0x5F2 JUMP JUMPDEST DUP2 EQ PUSH2 0x60E JUMPI PUSH0 DUP1 REVERT JUMPDEST POP JUMP JUMPDEST PUSH0 DUP2 CALLDATALOAD SWAP1 POP PUSH2 0x61F DUP2 PUSH2 0x5FB JUMP JUMPDEST SWAP3 SWAP2 POP POP JUMP JUMPDEST PUSH0 DUP2 SWAP1 POP SWAP2 SWAP1 POP JUMP JUMPDEST PUSH2 0x637 DUP2 PUSH2 0x625 JUMP JUMPDEST DUP2 EQ PUSH2 0x641 JUMPI PUSH0 DUP1 REVERT JUMPDEST POP JUMP JUMPDEST PUSH0 DUP2 CALLDATALOAD SWAP1 POP PUSH2 0x652 DUP2 PUSH2 0x62E JUMP JUMPDEST SWAP3 SWAP2 POP POP JUMP JUMPDEST PUSH0 DUP1 REVERT JUMPDEST PUSH0 DUP1 REVERT JUMPDEST PUSH0 DUP1 REVERT JUMPDEST PUSH0 DUP1 DUP4 PUSH1 0x1F DUP5 ADD SLT PUSH2 0x679 JUMPI PUSH2 0x678 PUSH2 0x658 JUMP JUMPDEST JUMPDEST DUP3 CALLDATALOAD SWAP1 POP PUSH8 0xFFFFFFFFFFFFFFFF DUP2 GT ISZERO PUSH2 0x696 JUMPI PUSH2 0x695 PUSH2 0x65C JUMP JUMPDEST JUMPDEST PUSH1 0x20 DUP4 ADD SWAP2 POP DUP4 PUSH1 0x20 DUP3 MUL DUP4 ADD GT ISZERO PUSH2 0x6B2 JUMPI PUSH2 0x6B1 PUSH2 0x660 JUMP JUMPDEST JUMPDEST SWAP3 POP SWAP3 SWAP1 POP JUMP JUMPDEST PUSH0 DUP1 DUP4 PUSH1 0x1F DUP5 ADD SLT PUSH2 0x6CE JUMPI PUSH2 0x6CD PUSH2 0x658 JUMP JUMPDEST JUMPDEST DUP3 CALLDATALOAD SWAP1 POP PUSH8 0xFFFFFFFFFFFFFFFF DUP2 GT ISZERO PUSH2 0x6EB JUMPI PUSH2 0x6EA PUSH2 0x65C JUMP JUMPDEST JUMPDEST PUSH1 0x20 DUP4 ADD SWAP2 POP DUP4 PUSH1 0x1 DUP3 MUL DUP4 ADD GT ISZERO PUSH2 0x707 JUMPI PUSH2 0x706 PUSH2 0x660 JUMP JUMPDEST JUMPDEST SWAP3 POP SWAP3 SWAP1 POP JUMP JUMPDEST PUSH0 DUP1 PUSH0 DUP1 PUSH0 DUP1 PUSH0 DUP1 PUSH1 0xC0 DUP10 DUP12 SUB SLT ISZERO PUSH2 0x72A JUMPI PUSH2 0x729 PUSH2 0x583 JUMP JUMPDEST JUMPDEST PUSH0 PUSH2 0x737 DUP12 DUP3 DUP13 ADD PUSH2 0x5B4 JUMP JUMPDEST SWAP9 POP POP PUSH1 0x20 PUSH2 0x748 DUP12 DUP3 DUP13 ADD PUSH2 0x5DE JUMP JUMPDEST SWAP8 POP POP PUSH1 0x40 PUSH2 0x759 DUP12 DUP3 DUP13 ADD PUSH2 0x611 JUMP JUMPDEST SWAP7 POP POP PUSH1 0x60 PUSH2 0x76A DUP12 DUP3 DUP13 ADD PUSH2 0x644 JUMP JUMPDEST SWAP6 POP POP PUSH1 0x80 DUP10 ADD CALLDATALOAD PUSH8 0xFFFFFFFFFFFFFFFF DUP2 GT ISZERO PUSH2 0x78B JUMPI PUSH2 0x78A PUSH2 0x587 JUMP JUMPDEST JUMPDEST PUSH2 0x797 DUP12 DUP3 DUP13 ADD PUSH2 0x664 JUMP JUMPDEST SWAP5 POP SWAP5 POP POP PUSH1 0xA0 DUP10 ADD CALLDATALOAD PUSH8 0xFFFFFFFFFFFFFFFF DUP2 GT ISZERO PUSH2 0x7BA JUMPI PUSH2 0x7B9 PUSH2 0x587 JUMP JUMPDEST JUMPDEST PUSH2 0x7C6 DUP12 DUP3 DUP13 ADD PUSH2 0x6B9 JUMP JUMPDEST SWAP3 POP SWAP3 POP POP SWAP3 SWAP6 SWAP9 POP SWAP3 SWAP6 SWAP9 SWAP1 SWAP4 SWAP7 POP JUMP JUMPDEST PUSH0 DUP3 DUP3 MSTORE PUSH1 0x20 DUP3 ADD SWAP1 POP SWAP3 SWAP2 POP POP JUMP JUMPDEST PUSH32 0x536F7572636520636861696E20494420646F6573206E6F74206D617463680000 PUSH0 DUP3 ADD MSTORE POP JUMP JUMPDEST PUSH0 PUSH2 0x81C PUSH1 0x1E DUP4 PUSH2 0x7D8 JUMP JUMPDEST SWAP2 POP PUSH2 0x827 DUP3 PUSH2 0x7E8 JUMP JUMPDEST PUSH1 0x20 DUP3 ADD SWAP1 POP SWAP2 SWAP1 POP JUMP JUMPDEST PUSH0 PUSH1 0x20 DUP3 ADD SWAP1 POP DUP2 DUP2 SUB PUSH0 DUP4 ADD MSTORE PUSH2 0x849 DUP2 PUSH2 0x810 JUMP JUMPDEST SWAP1 POP SWAP2 SWAP1 POP JUMP JUMPDEST PUSH32 0x496E76616C696420717565727920736368656D61000000000000000000000000 PUSH0 DUP3 ADD MSTORE POP JUMP JUMPDEST PUSH0 PUSH2 0x884 PUSH1 0x14 DUP4 PUSH2 0x7D8 JUMP JUMPDEST SWAP2 POP PUSH2 0x88F DUP3 PUSH2 0x850 JUMP JUMPDEST PUSH1 0x20 DUP3 ADD SWAP1 POP SWAP2 SWAP1 POP JUMP JUMPDEST PUSH0 PUSH1 0x20 DUP3 ADD SWAP1 POP DUP2 DUP2 SUB PUSH0 DUP4 ADD MSTORE PUSH2 0x8B1 DUP2 PUSH2 0x878 JUMP JUMPDEST SWAP1 POP SWAP2 SWAP1 POP JUMP JUMPDEST PUSH32 0x4E487B7100000000000000000000000000000000000000000000000000000000 PUSH0 MSTORE PUSH1 0x32 PUSH1 0x4 MSTORE PUSH1 0x24 PUSH0 REVERT JUMPDEST PUSH2 0x8EE DUP2 PUSH2 0x625 JUMP JUMPDEST DUP3 MSTORE POP POP JUMP JUMPDEST PUSH0 PUSH1 0x40 DUP3 ADD SWAP1 POP PUSH2 0x907 PUSH0 DUP4 ADD DUP6 PUSH2 0x55B JUMP JUMPDEST PUSH2 0x914 PUSH1 0x20 DUP4 ADD DUP5 PUSH2 0x8E5 JUMP JUMPDEST SWAP4 SWAP3 POP POP POP JUMP JUMPDEST PUSH0 DUP2 ISZERO ISZERO SWAP1 POP SWAP2 SWAP1 POP JUMP JUMPDEST PUSH2 0x92F DUP2 PUSH2 0x91B JUMP JUMPDEST DUP2 EQ PUSH2 0x939 JUMPI PUSH0 DUP1 REVERT JUMPDEST POP JUMP JUMPDEST PUSH0 DUP2 MLOAD SWAP1 POP PUSH2 0x94A DUP2 PUSH2 0x926 JUMP JUMPDEST SWAP3 SWAP2 POP POP JUMP JUMPDEST PUSH0 PUSH1 0x20 DUP3 DUP5 SUB SLT ISZERO PUSH2 0x965 JUMPI PUSH2 0x964 PUSH2 0x583 JUMP JUMPDEST JUMPDEST PUSH0 PUSH2 0x972 DUP5 DUP3 DUP6 ADD PUSH2 0x93C JUMP JUMPDEST SWAP2 POP POP SWAP3 SWAP2 POP POP JUMP JUMPDEST PUSH0 PUSH1 0xA0 DUP3 ADD SWAP1 POP PUSH2 0x98E PUSH0 DUP4 ADD DUP9 PUSH2 0x8E5 JUMP JUMPDEST PUSH2 0x99B PUSH1 0x20 DUP4 ADD DUP8 PUSH2 0x55B JUMP JUMPDEST PUSH2 0x9A8 PUSH1 0x40 DUP4 ADD DUP7 PUSH2 0x55B JUMP JUMPDEST PUSH2 0x9B5 PUSH1 0x60 DUP4 ADD DUP6 PUSH2 0x55B JUMP JUMPDEST PUSH2 0x9C2 PUSH1 0x80 DUP4 ADD DUP5 PUSH2 0x8E5 JUMP JUMPDEST SWAP7 SWAP6 POP POP POP POP POP POP JUMP INVALID LOG2 PUSH5 0x6970667358 0x22 SLT KECCAK256 TIMESTAMP RETURNDATASIZE PUSH2 0x3181 0xC8 CREATE 0xA8 DUP7 DUP8 MLOAD 0x4A PUSH13 0xA7EC11A9506CAC9034EFFA2EC1 0xCE MOD PUSH19 0x6197D464736F6C634300081400330000000000 "
				},
				"gasEstimates": {
					"creation": {
						"codeDepositCost": "512400",
						"executionCost": "infinite",
						"totalCost": "infinite"
					},
					"external": {
						"axiomV2Callback(uint64,address,bytes32,uint256,bytes32[],bytes)": "infinite",
						"axiomV2OffchainCallback(uint64,address,bytes32,uint256,bytes32[],bytes)": "infinite",
						"axiomV2QueryAddress()": "infinite"
					},
					"internal": {
						"_axiomV2Callback(uint64,address,bytes32,uint256,bytes32[] calldata,bytes calldata)": "infinite",
						"_validateAxiomV2Call(enum AxiomV2Client.AxiomCallbackType,uint64,address,bytes32,uint256,bytes calldata)": "infinite"
					}
				},
				"methodIdentifiers": {
					"axiomV2Callback(uint64,address,bytes32,uint256,bytes32[],bytes)": "dc5cd53c",
					"axiomV2OffchainCallback(uint64,address,bytes32,uint256,bytes32[],bytes)": "8193399c",
					"axiomV2QueryAddress()": "2a75d3be"
				}
			},
			"storageLayout": {
				"storage": [
					{
						"astId": 14,
						"contract": "contracts/Verifier.sol:Verifier",
						"label": "BASE_TOKEN",
						"offset": 0,
						"slot": "0",
						"type": "t_contract(IERC20)272"
					}
				],
				"types": {
					"t_contract(IERC20)272": {
						"encoding": "inplace",
						"label": "contract IERC20",
						"numberOfBytes": "20"
					}
				}
			},
			"userdoc": {
				"events": {
					"AxiomV2Call(uint64,address,bytes32,uint256)": {
						"notice": "Emitted when a callback is made from AxiomV2Query via an on-chain query."
					},
					"AxiomV2OffchainCall(uint64,address,bytes32,uint256)": {
						"notice": "Emitted when a callback is made from AxiomV2Query via an off-chain query."
					}
				},
				"kind": "user",
				"methods": {
					"axiomV2Callback(uint64,address,bytes32,uint256,bytes32[],bytes)": {
						"notice": "Callback which is intended to be called upon on-chain query fulfillment by AxiomV2Query"
					},
					"axiomV2OffchainCallback(uint64,address,bytes32,uint256,bytes32[],bytes)": {
						"notice": "Callback which is intended to be called upon off-chain query fulfillment by AxiomV2Query"
					}
				},
				"version": 1
			}
		}
	}
}